:400000000080002011000000E90F0000E90F000008B5044B1A6803F53F5302331A6000F0E5FF00BFFA46004010B5054C237833B9044B13B10448AFF300800123237010BDA3
:400040003881FF1F00000000443A0000084B10B51BB108480849AFF300800848036803B910BD074B002BFBD0BDE81040184700BF00000000443A00003C81FF1F0881FF1FE5
:4000800000000000B0F57A7F06D808B500F2E73080B201F053F908BD704700BFB0F57A7F06D808B500F2E73080B201F04DF908BD704700BFB0F57A7F06D808B500F2E7302C
:4000C00080B201F08FF908BD704700BFB0F57A7F06D808B500F2E73080B201F089F908BD704700BF10B5214B1B78214B1A68214B1B689A4202D11E4B1B6833B91C4C2068E0
:40010000FFF7C0FF22681B4B1A601B4B1A681B4B1B689A4202D1184B1B6833B9164C2068FFF7BCFF2268154B1A60154B1A68154B1B689A4202D1124B1B6833B9104C20682B
:40014000FFF7B8FF22680F4B1A600F4B1A680F4B1B689A4202D10C4B1B6833B90A4C2068FFF7B4FF2268094B1A6010BD656500406082FF1F2883FF1F4882FF1F7C82FF1FC3
:400180001482FF1F3C82FF1F2C82FF1FCC82FF1F08B501F005F901F057F9002001F0CEF8002001F0D1F8002001F01CF9002001F01FF908BD0000000038B500231A4602E073
:4001C000C15C0A4401330C2BFADDD2B2837B9A427BD104468378C27803EB02233E4D2B600379427903EB02236B608379C27903EB0223C3F58063AB60037A427A03EB0223AF
:40020000C3F58063EB60007B783802F06FFF30A3D3E9002303F0FAF803F0E0F92F4B1860E07AC0F1780002F061FF29A3D3E9002303F0ECF803F0D2F9294B1860E86803F0B4
:40024000D7FA02F065FF00224FF0814302F000FE02460B46104603F100410022214B02F0ABFF0022204B02F0A7FF03F0B7F91F4B1860A86803F0BCFA02F04AFF00224FF0F5
:40028000814302F0E5FD0022164B02F095FF0022154B02F091FF03F0A1F9154B1860686803F0A6FA02F034FF00224FF0814302F0CFFD00220F4B02F07FFF00220A4B02F074
:4002C0007BFF03F08BF90C4B186038BDAFF3008085EB51B81E052E405481FF1F5C82FF1F2882FF1F00003E400000603F3083FF1F5882FF1F000044403082FF1FAFF300800A
:4003000008B501F065FB164B1870A5280BD1154B1B6943B9A522144B1A700123134A1370104A136108BD0F4B1B69012B09D10F4A12780E2A05D80C4B985401320B4B1A70C4
:4003400008BD012B0BD1094B19780F2907D10648FFF732FF0023054A1370024A136108BD8881FF1F5481FF1FD482FF1F3482FF1F00230E4A13600E4A13600E4A13600E4A8E
:4003800013600E4A13600E4A13600E4A13600E4A13600E4A13600E4A136000230D4A13600D4A13600D4A1360704700BF1883FF1F8C81FF1F1C83FF1F3483FF1FC882FF1F33
:4003C000D082FF1F1C82FF1F8481FF1F2C83FF1F4482FF1F8482FF1F9081FF1F6482FF1F0B2940F05D810378552B40F05B8110B50023AF4A1360AF4A136007E0C45CAC49A1
:400400000A6822440A600133AA4A1360A94B1B68092BF3DD827AA64B1B789A4240F0448104464378513B052B00F24081DFE813F006005800AA00FC003E011E01C078A37820
:4004400043EA002000B203F0D3F902F061FE00224FF07C5302F0B0FE0022974B02F0ACFE03F0BCF8954B18606079237943EA002000B203F0BDF902F04BFE00224FF07C5376
:4004800002F09AFE00228C4B02F096FE03F0A6F88B4B1860E079A37943EA002000B203F0A7F902F035FE00224FF07C5302F084FE0022814B02F080FE03F090F8814B186067
:4004C000607A237A43EA002002F010FE00227E4B02F09CFF03F082F87C4B1860512010BDC078A37843EA002000B203F081F902F00FFE00224FF07C5302F05EFE0022744BB9
:4005000002F05AFE03F06AF8724B18606079237943EA002000B203F06BF902F0F9FD00224FF07C5302F048FE0022694B02F044FE03F054F8684B1860E079A37943EA002096
:4005400000B203F055F902F0E3FD00224FF07C5302F032FE00225E4B02F02EFE03F03EF85E4B1860607A237A43EA002002F0BEFD0022554B02F04AFF03F030F8534B186092
:40058000522010BDC078A37843EA002000B203F02FF902F0BDFD00224FF07C5302F00CFE00224F4B02F008FE03F018F84D4B18606079237943EA002000B203F019F902F085
:4005C000A7FD00224FF07C5302F0F6FD0022444B02F0F2FD03F002F8434B1860E079A37943EA002000B203F003F902F091FD00224FF07C5302F0E0FD0022394B02F0DCFD6A
:4006000002F0ECFF394B1860607A237A43EA002002F06CFD00222C4B02F0F8FE02F0DEFF2A4B1860532010BDC278837843EA02232F4A13604279037943EA02232D4A13605F
:40064000C279837943EA02232B4A1360407A237A43EA002002F04AFD00221B4B02F0D6FE02F0BCFF194B1860542010BD427903791B0443EA0263C27843EA02238278134350
:400680001E4A1360427A037A1B0443EA0263C27943EA022382791343194A1360562010BD0020704700207047012010BD002010BD3882FF1F6882FF1F000030401C83FF1FE8
:4006C0008C81FF1F1883FF1F000059401C82FF1F00409F40D082FF1FC882FF1F3483FF1F008066404482FF1F2C83FF1F8481FF1F6482FF1F9081FF1F8482FF1F2483FF1FDF
:400700002482FF1F08B502F05FFB204B1870552806D11F4B5B691BB901221D4B5A6108BDA0F15103DBB2032B12D8194B5B69012B0ED1174B9B695BB9164B55221A70587037
:400740000222154B1A70124B01229A615A6108BD0F4B9B69012B14D10F4A1378591CC9B211700C4AD0540B290FD11046FFF738FE0A4B18600023084A1370054A93615361E0
:4007800008BD034B00229A615A6108BD4082FF1F5481FF1F8882FF1F2083FF1F1483FF1F10B504460846114600F07EFF204600F013FF10BD2DE9F04162B600F067FF2B489A
:4007C00000210A46FFF7ECFF294801F0C5F801F003F8FFF7DDFC0020014601F031FA01F067FA0028FBD001F0E9FA0024214B1C7001F0E0F801F0BEF81F4801F009F91F4BE1
:400800001C7002F0D3FA02F0B1FA1D4802F0A0FAFFF7AEFD00F044F81A4821462246FFF7BFFFDFF87880C8F80040174F3C60174E3460174D2C60174B1C604FF40072DA60A6
:400840009A605A6042F2107000F0E8FF124821462246FFF7A5FFC8F800403C6034602C6000F082F8642000F0D9FFF9E70C3B0000E50000003482FF1F010300002083FF1F5F
:4008800005070000183B00001482FF1F4882FF1F6082FF1F5481FF1F243B00002C82FF1F0023194A1360194A1360194A1360194A13600023184A1360184A1360184A136002
:4008C000184A1360184A1360184A1360184A1360184A1360184A1360184A1360184A1360184A1360184A1360184A1360184A1360184A1360184A1360184A1360184A1360A8
:40090000184A1360704700BF8C83FF1F4483FF1F7083FF1F6483FF1F8083FF1F9083FF1F5883FF1F7483FF1F9483FF1F5083FF1F6C83FF1F4883FF1F7883FF1F4083FF1FCE
:400940008483FF1F3C83FF1F4C83FF1F8883FF1F6083FF1F5C83FF1F5483FF1F3883FF1F7C83FF1F6883FF1F2DE9F04F83B0644B1C684FF4617303FB04F4002C01DA04F2A8
:40098000FF34A4125F4B186802F032FF02F0C0FB00224FF0814302F05BFA00225A4B02F00BFC0022594B02F007FC02F017FE0546574B186802F01CFF02F0AAFB00224FF0F4
:4009C000814302F045FA00224F4B02F0F5FB00224E4B02F0F1FB02F001FE06464D4B186802F006FF02F094FB00224FF0814302F02FFA0022484B02F0DFFB0022434B02F09B
:400A0000DBFB02F0EBFD8146444F3868444B196802F03AFE80463860DFF840A1DAF80000404B196802F030FE0746CAF8000028463D4902F07FFF30B928463C4902F098FFE6
:400A400010B13A4D00E0384D394B1D603046364902F070FF30B93046344902F089FF10B1324E00E0304E334B1E604846324902F061FF38B94846314902F07AFF20B1DFF81A
:400A8000BC9001E0DFF8B0902D4BC3F800903046414602F0F7FD80462A4B18602846394602F0F0FD0546284B18604046274B196802F0EAFD83462846254B196802F0E4FD4A
:400AC00082465846234902F053FF38B95846224902F030FF20B1DFF880B001E0DFF874B01A4BC3F800B050461A4902F041FFB8BB5046194902F01EFFA0B3DFF85CA031E065
:400B00005481FF1F5C81FF1F00003E400000603F6081FF1F5881FF1F000044404482FF1F5C82FF1F2882FF1F0000F0C10000F0413083FF1F5882FF1F000020C20000204299
:400B40003082FF1F9483FF1F7483FF1F8883FF1F6083FF1F00007A4400007AC42C83FF1FDFF864A28E4BC3F800A0404602F0D0FA02460B4602F06EF906460F46584602F0F2
:400B8000C7FA0022002302F017FB02460B463046394602F05FF906460F46DFF84CB24046DBF8001002F06EFD02F0B2FA0022002302F002FB02460B463046394602F04AF982
:400BC00002F00CFD0646774B1860284602F0A0FA02460B4602F03EF9CDE90001504602F097FA0022002302F0E7FA02460B46DDE9000102F02FF9CDE900016B4F28463968D6
:400C000002F040FD02F084FA0022002302F0D4FA02460B46DDE9000102F01CF902F0DEFC8246624B1860CBF800803D603046604B196802F027FD80465E4B186050465E4B32
:400C4000196802F01FFD05465C4B186040465C4B196802F019FD834628465A4B196802F013FD82465846584902F082FE38B95846564902F05FFE20B1DFF850B101E0DFF80F
:400C800048B14F4BC3F800B050464F4902F070FE38B950464D4902F04DFE20B1DFF82CA101E0DFF824A1474BC3F800A0404602F02FFA02460B4602F0CDF806460F4658463F
:400CC00002F026FA0022002302F076FA02460B463046394602F0BEF806460F46DFF80CB14046DBF8001002F0CDFC02F011FA0022002302F061FA02460B463046394602F09D
:400D0000A9F802F06BFC0646314B1860284602F0FFF902460B4602F09DF8CDE90001504602F0F6F90022002302F046FA02460B46DDE9000102F08EF8CDE90001254F2846EB
:400D4000396802F09FFC02F0E3F90022002302F033FA02460B46DDE9000102F07BF802F03DFC82461C4B1860CBF800803D6048461A4B196802F086FC0546194B1860194B29
:400D8000196802F081FC07460F4902F0F1FD78BB38460E4902F0CEFD58B30C4F29E000BF6083FF1F5C83FF1F7883FF1F5483FF1FD082FF1F8083FF1FC882FF1F9083FF1F95
:400DC0003C83FF1F4C83FF1F00007A4400007AC46883FF1F6C83FF1F7C83FF1F3483FF1F5883FF1F8483FF1F4083FF1F5083FF1F724F734B1F60284602F08AF90022714B76
:400E000002F0DAF980468946384602F081F90022002302F0D1F902460B464046494602F019F880468946DFF8BCB12846DBF8001002F028FC02F06CF90022002302F0BCF939
:400E400002460B464046494602F004F802F0C6FB07465D4B1860CBF80050204602F0C8FC04463046514602F00FFC0146384602F00BFC0146204602F007FC02F083FD81469A
:400E80005046314602F0FEFB394602F0FBFB0146204602F0F9FB02F075FD804606F10040514602F0EFFB0146384602F0EDFB0146204602F0E9FB02F065FD0546304651469E
:400EC00002F0E0FB394602F0DDFB0146204602F0DBFB02F057FDB9F1000F06DB4B46B9F57A7FA8BF4FF47A7300E00023374A1360B8F1000F06DB4346B8F57A7FA8BF4FF44F
:400F00007A7300E00023324A1360002D05DBB5F57A7FA8BF4FF47A7500E000252D4B1D60002805DBB0F57A7FA8BF4FF47A7000E00020294D28600020014600F0B5FB234BE2
:400F4000188800F0CFFB254C204600F045FB0020042100F0A9FB1E4B188800F0C3FB204600F03AFB0020082100F09EFB194B188800F0B8FB204600F02FFB00200C2100F0BF
:400F800093FB288800F0AEFB204600F025FB144A136801331360632B02DD0022104B1A600120002100F080FB0D4B188800F09AFB0A4800F011FB03B0BDE8F08F00007A44F3
:400FC0008483FF1F000008403883FF1F6483FF1F7083FF1F4483FF1F8C83FF1F103B00007081FF1F4883FF1FFEE700BF08B5104E104D16E029686B68AC68002204E051F867
:40100000040B43F8040B0432A242F8D1E868002203E0002143F8041B04328242F9D11035013E002EE6D102F0D3FCFFF7C3FBFEE701000000203D000008B5124A124B1A60CF
:40104000124A136843F40073136000230AE0032B03D80F4A52F8231000E00E490E4A42F8231001332F2BF2D90C4B1A780C4B1A70094A0C4B1A6000F0BFF800220A4B1A60B5
:4010800008BD00BF0004FA050CED00E014ED00E000000000E90F00000080FF1FBC7600400481FF1F08ED00E00081FF1FFEE700BFF0B40022174611E050F82760F3B226F08E
:4010C000FF0608E001EB420511F812406D78A5550132013BDBB2002BF4D10137202FEBD9F0BC7047064B1B78DBB203F00701054A11701B09013213704422034B1A707047F1
:40110000CF0100496E5800407658004038B53F22294B1A801823294A1370442102321180023213704FF4507102321180023213700622234B1A705222A3F580731A70214B7F
:401140001B78DBB2204A137040F618021F4B1A8041F25122023B1A80002419250CE01C4B1B7803F0010343EA440404F003044FF4F07000F041FB013D0DB1032CEFD115B95A
:401180000320FFF793FF134A4FF48073138007231370002310490B7048200231087013700532137002220D4B1A700D4A137843F00703137038BD00BF80400040824000400C
:4011C000004300400F010049A14600402242004025420040044000400640004001400040A243004008B50A46002102F022FC08BD08B502F013FC08BD10B572B60122354BDB
:401200001A70FFF783FF344A137843F00403137000240CE0314963001A1952000A4423445B00C8589188FFF7DDFF0134E4B20A2CF0D9002410E02949A3001A1952000A4493
:4012400052F8440F23445B000B445168B3F84C20FFF7CEFF0134E4B2012CECD94FF090401F49FFF725FF1F4A137843F0020313701032137843F0020313701B4C237843F073
:4012800040032370A2F58632513A137843F010031370164816490A22FFF7AAFF154816490822FFF7A5FF154815490822FFF7A0FF144815490822FFF79BFF144A137843F018
:4012C00008031370FFF70EFF114821460E22FFF78FFF10BD00480040E8460040303B00008400004803500140A0430040F05100401807004822510040240700484251004057
:401300002C070048625100403407004822430040B0430040024A137843F080031370704777650040014B1880704700BF0C6A0040014B1880704700BF8C6A0040014B18807D
:40134000704700BF4C6A0040014B1880704700BF6C6A004008B5114A137803F0C00343F0090313701F32137843F0010313700132137843F00103137040F69F70FFF7D2FF5C
:4013800040F69F70FFF7D4FF40F2CF70FFF7D6FF40F2E730FFF7D8FF08BD00BF7765004008B5054B1B7823B9FFF7D4FF0122024B1A70FFF7AFFF08BD7481FF1F024A13789B
:4013C00043F080031370704777640040014B1880704700BF0C680040014B1880704700BF8C680040014B1880704700BF4C680040014B1880704700BF6C68004008B5114A72
:40140000137803F0C00343F0090313701F32137843F0010313700132137843F00103137040F69F70FFF7D2FF40F69F70FFF7D4FF40F2CF70FFF7D6FF40F2E730FFF7D8FF2F
:4014400008BD00BF7764004008B5054B1B7823B9FFF7D4FF0122024B1A70FFF7AFFF08BD7581FF1F10B50B4C237803F09F032370237803F0F00323702378184340F01000E8
:401480002070012000F0E0F9237803F0EF03237010BD00BF2051004038B505460E4C237843F020032370237803F0BF032370002000F0CAF9237803F0F003237023781D4387
:4014C00045F010052570012000F0BEF9237803F0EF03237038BD00BF2051004070B5354B1A7802F08002D2B21A7033490A7802F0F00242F00F020A7001310A7802F0F002DD
:401500000A7001310A7802F0F0020A701A7802F0DF021A701A7842F040021A704FF4CA76002000F091F9234D2B7843F010032B70012000F089F9214B1C78E4B22B7803F0D0
:40154000EF032B70002000F07FF904F00804E4B22B7843F010032B70012000F075F92B7803F0EF032B7014B90A2000F06DF9013E0CB1002ED4D10F4A137803F0BF03137062
:40158000137803F08003DBB213700232137803F0F00313700132137803F0F00343F00F0313700132137803F0F00343F00F03137070BD00BF20510040225100402151004018
:4015C00010B50446FFF78AFF2009FFF765FF04F00F00FFF761FF10BD38B505460078012404E0FFF7EDFF285D0134E4B20028F8D138BD00BF10B50446FFF770FF2009FFF791
:4016000031FF04F00F00FFF72DFF10BD08B5282000F004F90320FFF725FF052000F0FEF80320FFF71FFF0F2000F0F8F80320FFF719FF012000F0F2F80220FFF713FF05208D
:4016400000F0ECF80620FFF7D5FF0E20FFF7D2FF2C20FFF7CFFF0820FFF7CCFF0120FFF7C9FF0C20FFF7C6FF0320FFF7C3FF052000F0D4F808BD00BF08B50C20FFF7BAFF1A
:401680000122014B1A7008BD7681FF1F08B5054B5B7823B9FFF7BAFF0122024B5A70FFF7EBFF08BD7681FF1F08B5032819D8DFE800F002070D1381F08000FFF79BFF08BDF9
:4016C000A1F14000C0B2FFF795FF08BDA1F16C00C0B2FFF78FFF08BDA1F12C00C0B2FFF789FF08BD00B585B000238DF80E30092210E0134BA3FB0013DB08194603EB83037B
:401700005B00C31A303304A8104400F80C3C0846013AD2B20928ECD8094BA3FB0013DB0803EB83035B00C31A303304A9114401F80C3C01AB9818FFF74FFF05B05DF804FBE9
:40174000CDCCCCCC024A137843F080031370704775650040014B1870704700BF85650040014B1878704700BF65650040014B1880704700BF486A0040014B188880B2704766
:40178000886A0040014B1880704700BF086A004008B501E0FFF7F0FFFFF7E2FF10F0080FF8D108BD08B541F28730FFF7DFFF41F28730FFF7E7FF00F027F8064A137843F08E
:4017C0001003137000F024F8FFF7E2FF0120FFF7C1FF08BD9565004008B5054B1B7823B9FFF7E0FF0122024B1A70FFF7ABFF08BD7881FF1F000000000230800803D000BF87
:4018000001380046FCD17047EFF3108072B6704780F31088704700BF01BE704710B5044605E0084B1868FFF7E7FFA4F50044B4F5004FF6D8034B586800FB04F0FFF7DCFF49
:4018400010BD00BF0C81FF1F08B5034B1B7A03FB00F0FFF7D1FF08BD0C81FF1F70B504460E46074B1D681F2802D90020FFF7D4FF04F01F04103455F8240045F8246070BD0E
:4018800008ED00E038B504460D46072902D90020FFF7C2FF1F2C02D90020FFF7BDFF04F01F0000F1604000F564406D01EDB2057038BD00BF134B1B78DBB20360124A1278B5
:4018C00043EA02230360114A127843EA024303600F4A127843EA026303600E4B1B78DBB243600D4A127843EA022343600B4A127843EA024343600A4A127843EA02634360A8
:40190000704700BF0301004904010049EC4600400201004901010049000100490501004906010049014B1B685865704708ED00E04001C0B2014B1870704700BF05E400E0C6
:401940002022014B1A60704700E100E02022014B1A60704780E100E010B50446FFF7F6FF2046FFF7DFFF0720FFF7E2FFFFF7E8FF10BD00BF7222034B1A70202203331A70DE
:40198000704700BF8865004010B5FFF73DFF0446074A137843F0200313700332137843F01003137000F042F82046FFF731FF10BD9865004008B5054B1B7823B9FFF7DAFFFA
:4019C0000122024B1A70FFF7DFFF08BD7981FF1F014B1878704700BF48640040014B1B681865704708ED00E04001C0B2014B1870704700BF04E400E01022014B1A607047B2
:401A000000E100E01022014B1A60704780E100E010B50446FFF7F6FF2046FFF7DFFF0720FFF7E2FFFFF7E8FF10BD00BF054A137843F0040313701032137843F00403137039
:401A4000704700BFA2430040F8B5FFF7DDFE0746404A137843F0010313701032137843F00103137001263C4B1E700225943B1D7002F5E2521B32137803F07F0313700020D0
:401A8000FFF7E2FE354C237803F0F9032370344A137803F0DF0313702378334323703046FFF7D2FE2820FFF7CFFE2E4B1A7802F07F021A701A7802F0BF021A7023782B4386
:401AC00023702846FFF7C0FE237843F0040323700024254B1C7001331C703846FFF798FE17200721FFF7CEFE17202049FFF7B6FE18200721FFF7C6FE18201D49FFF7AEFE1A
:401B000015200721FFF7BEFE15201A49FFF7A6FE20460721FFF7B6FE20461749FFF79EFE30460721FFF7AEFE30461449FFF796FE28460721FFF7A6FE28461149FFF78EFEBD
:401B40000C200721FFF79EFE0C200E49FFF786FEF8BD00BFA54300409D6000409443004012600040F851004084600040C923000099210000C52300000D230000452300000D
:401B800081230000D123000008B5214B18700023204A1370204A1370204A1370204A1370204A1370204A1370204A1370204B4FF400021A604FF080721A604FF400121A609A
:401BC00001221A6002221A6004221A6011B1012906D00BE0174A137803F0FE0313700AE0144A137843F00103137004E0114A137843F00103137003220F4B1A708022203BE3
:401C00001A700120FFF7F8FD04220C4B1A7008BD4384FF1F4284FF1FB483FF1FB583FF1FB683FF1F4684FF1FB783FF1FB383FF1F00E100E0096000402860004012600040FF
:401C400038B505460C46064B1B7823B9FFF7FCFE0122034B1A7028462146FFF795FF38BD7A81FF1F00230A4A13700A4A13700A4A13700A4A13700A4A13700A4A13700A4A41
:401C800013700322094B1A708022203B1A7070474284FF1FB483FF1FB583FF1FB683FF1F4684FF1FB783FF1FB383FF1F28600040014B1878704700BFB583FF1F431EDBB288
:401CC000072B0BD8430003449B00054A134400225A705A79D2B20001024B1A54704700BFD483FF1FFE5F004010B4FF2400220EE00A4B9B5C03EB43039B0009490B449B78B7
:401D0000DBB2834201D1144602220132D2B2012AEED920465DF8044B704700BFA083FF1FDC83FF1F10B5204C2079FFF7DDFF237813F0800F0ED06378DBB2212B2FD11B4B59
:401D400007221A80C0EBC000194A1044586000F091FA10BD144B5B78DBB2202B02D0222B10D01EE0114A07231380C0EBC00310490B4453600F4A135C43F00103135400F040
:401D8000A1FA10BD084B9B780B4A22F81030094A135C43F00203135400F02CF910BD002010BD002010BD00BF00600040C483FF1F1C81FF1FA883FF1FAC83FF1F10B500248B
:401DC0001F4B1C701F4B1C705C700AE01E4B185DC0B2431EDBB2072B01D8FFF76FFF0134E4B2012CF2D9194B1B7813F0FF0F1AD0154B1B7813F0FF0F17D0154B1B7813F0FE
:401E0000FF0F14D0114B1B78DBB2082B11D80E4B1B78DBB2082B0ED80D4B1B78DBB2082B0BD8002010BD012010BD012010BD012010BD012010BD012010BD012010BD00BFB8
:401E40007B81FF1FA883FF1F9C83FF1F9883FF1FA083FF1FC37803F0030390F9020000280FDA032B06D002F001030B48C15442F001020EE0C2F380030848C15442F004021E
:401E800007E0032B05D0C2F340030548C15442F002021046704700BF9883FF1FA083FF1F9C83FF1F1C4B19781C4A13880B449BB2138000230EE01A4A51680978C9B2194872
:401EC000C1545168013151600133DBB21188013989B21180124A128892B20AB1072BEAD90D4A1278D2B2082A00D05BB10E490A7882F080020A700F210C4A117002210C4AAD
:401F0000117004E0022209490A7009490A70094A1370014A13707047B383FF1F4084FF1FC483FF1F00600040B883FF1FB283FF1F4284FF1FD083FF1F0222074B1A70802247
:401F4000064B1A700F22064B1A700023054A1370054A1370012070474284FF1FB883FF1FB283FF1FB383FF1FD083FF1F08B5FFF799FF08BD10B4184B197801F00F01023982
:401F8000C9B2164A13880B449BB21380002010E0134B5C68134A125CD2B222705A6801325A600130C0B20139C9B21A88013A92B21A800B4B1B889BB20BB10029E8D10A4B6E
:401FC00019700A4A137883F0800313700B22084B1A705DF8044B7047296000404084FF1FC483FF1F00600040D083FF1FB883FF1FB283FF1F0623064A1370064A137080225D
:40200000054B1A700022054B1A700120704700BF4284FF1FB283FF1FB883FF1FD083FF1F064B9B6843B1054B9A6810709A6804490988518000229A60704700BFC483FF1F70
:402040004084FF1F08B5134B1A78D2B21A701B78DBB213F0800F02D00F4A137008BD0220FFF7DEFF0D4B1B7803F06003202B05D0402B06D043B900F095FC06E000F0B8FEFE
:4020800003E000F037FE00E0002010B90322024B1A7008BD28600040B283FF1F0060004008B5084B1978084A13880B449BB213800022064B1A700120FFF7B2FF0322044BDD
:4020C0001A7008BDB383FF1F4084FF1F4284FF1FB283FF1F08B50B4B1B78DBB2042B06D0062B07D0022B0BD1FFF7DAFF08BDFFF741FF08BD0320FFF793FF0322024B1A70A5
:4021000008BD00BF4284FF1FB283FF1F08B50022044B1A700120FFF783FF0322024B1A7008BD00BF4284FF1FB283FF1F08B50B4B1B7813F0FF0F07D0084A137843F08003BB
:4021400007490B70002313700022064B1A700120FFF766FF0322044B1A7008BD4684FF1F086000404284FF1FB283FF1F08B5094B1B78DBB2042B06D0062B07D0022B07D1A8
:40218000FFF7F4FE08BDFFF7C1FF08BDFFF7CEFF08BD00BF4284FF1F08B5284B1B78DBB213F0100F48D013F0800F0CD003F00F03012B16D1FFF746FF214B1B7813F0800FF0
:4021C00011D1012312E013F0400F03D0FFF7CEFF01230BE013F0200F07D0FFF77BFF012304E0002302E0002300E0002323B3134B1B7813F0800F1FD1124B1B78124A127825
:402200001343124A13701278D2B29A4214D10C4B1B78DBB2094A127812F0800F07D1084B1B78DBB2054A1370137803F00F03044A1278D2B29342EAD108BD00BF28600040D0
:40224000B283FF1FB883FF1FD083FF1F296000400022064B1A80064B9B682BB1044A916800230B7092685380704700BF4084FF1FC483FF1F08B50F4B1B889BB213B9FFF703
:402280005BFE15E002220C4B1A7000220B4B1A70FFF7DEFF0A4AD179937943EA0123054A128892B29A4201D9024A1380FFF7FAFD012008BDC483FF1F4284FF1FB883FF1FC4
:4022C0000060004008B504220B4B1A7080220B4B1A70FFF7BDFF0A4AD179937943EA0123084A128892B29A4201D9064A13800B22054B1A70012008BD4284FF1FB883FF1F59
:4023000000600040C483FF1FB283FF1F0A4A137803F0FE031370094B9B7C094B1B7B03F00303012B04D0064AD37B83F08003D3730122034B5A7370470B600040FC5F00408C
:40234000D483FF1F0B4A137803F0FD0313700A4B93F82230094B1B7E03F00303012B04D0064AD37E83F08003D3760122034B5A76704700BF0B600040FC5F0040D483FF1F28
:402380000D4A137803F0FB0313700C4B93F832300B4B93F8243003F00303012B06D0084A92F8273083F0800382F827300122044B83F82520704700BF0B600040FC5F00406B
:4023C000D483FF1F704700BF08B5FFF74BFC08BD08B500F09BFC08BD70B588B0054603AC174E0FCE0FC43368237035B322232B7003236B7001A8FFF75DFA002402231AE08E
:4024000008AA224412F81C2C08A901EB121111F8141CE954581C00212954981C02F00F0208AE324412F8142C2A54DA1CA9540134E4B20433DBB2212BE2D908B070BD00BF12
:40244000883B000010B401223DE0114613010C242148C45402EB42039B00204803445B7913F0FF0F12D002EB42039B0003441B7913F0800F04D01001194B03449C700AE076
:402480001001174B03440820987004E01001144B0344802098704B000B449B000F480344DC88E4B208010C4901448C71D888C0F30720C871D888C0B20871DB88C3F3072381
:4024C0004B710132D2B2082ABFD9FF22054B1A705DF8044B704700BF70600040D483FF1FFC5F00400A600040074B1B78074A02EBC30253681A7C824203D903EBC003586975
:4025000070470020704700BF4384FF1F9C3B0000F8B5404B1B7813F0FF0F79D03D4B18780138C0B2FFF7E0FF047AC2683A4B1878C0B200236AE01178814264D13749095CD3
:40254000C9B25578A9425ED1917801F07F01D67806F00306DFF8C8E04D000D44AD000EEB05074FF0000C87F803C092F802C087F804C092F803C00EF805C095883D8192F9C9
:402580000250002D0DDA012E01D1072700E00D274D000D44AD00224E35446F7101266E700CE0012E01D1052700E009274D000D44AD001B4E35446F7100266E70DFF868E000
:4025C0000F010EEB07060125B57001FA05F529448900134D29440D89C5F307250EF807500D89EDB27570CE88F6B20E4D3D44AE71CE88C6F30726EE71CE88F6B22E71C9884F
:40260000C1F30721697108320133DBB2A34292D3F8BD00BFB583FF1FB683FF1FC083FF1FD483FF1F70600040FC5F0040034B1A78034B03EBC2035868704700BF4384FF1F01
:402640009C3B000008B5074B18780138C0B2FFF74BFF28B14268127900EBC203586908BD002008BDB583FF1F2DE9F84300220EE06F4E53009D18AD00741900217155A17022
:40268000E1702181A172617061710132D2B2082AEED940B90AE000226649CA546649CA540133DBB200E00023012BF4D9634B1B7813F0FF0F00F0B980604B18780138C0B204
:4026C000FFF712FF80464368DB7913F0400F05D05B4A137843F00103137004E0584A137803F0FE03137098F808704FF0000901266CE0D8F80C50002464E0AB7803F07F0386
:402700009E425CD1314606EB46039B00484803441B899BB2A888834205D206EB46039B00434A134418812B784248C35CDBB26878834244D195F802C03D484B000B449B00BE
:4027400000EB030E8EF804C095F803E000F803E0EB7803F0030395F90200002811DA012B02D14FF0070C01E04FF00D0CDFF8C0E04B0058188000704480F805C001234370C5
:4027800012E0012B02D14FF0050C01E04FF0090C27484FEA410E0EEB01039B00034483F805C0194600234B70AB790A2B01D0022B05D1284631464A46FFF74CFB814608356D
:4027C0000134E4B2BC4298D30136F6B2082E90D9D8F80C0000220CE0837803F07F0310F8084B03EB43039B0016490B449C700132D2B2BA42F0D3FFF725FF134B1860002360
:4028000001210EE00A4C4A00501880002044C380028913449BB203F0010213449BB20131C9B20829EED9FFF70DFEBDE8F88300BFD483FF1FC083FF1FB083FF1FB583FF1F8E
:40284000B783FF1FDC83FF1FBC83FF1F08B5154B1A7902F07F02531EDBB2072B20D8530013449B0010490B44997841F0010199700021D970597841F0020159701B7913F0D2
:40288000800F05D01201094B13448D229A7004E01201064B134489229A70FFF7ABFB08BD002008BD00600040D483FF1FFC5F0040264B1B7903F07F035A1ED2B2072A43D831
:4028C00010B55A001A44920021490A44917801F0FE0191700021D17019017F241D484454517801F0FD015170127912F0800F14D003EB4302920016490A445278D2B2012A97
:4029000005D11B0102461A440C23937019E01B01104A1A440D23937013E003EB430292000B490A445278D2B2012A05D11B01094A1A440823937004E01B01064A1A4409234F
:402940009370FFF757FB10BD0020704700600040D483FF1FFC5F004010B50E4B1C79E4B20D4B18780138C0B2FFF7BEFD43681B799C4201D9022C0AD8084A135DDBB2084984
:402980000B55044B9B78DBB21355012010BD002010BD00BF00600040B583FF1FC083FF1FB083FF1F10B59B4B1B78DBB200219A4A118013F0800F00F0AD80964A5278D2B2E0
:4029C0000A2A00F27281DFE812F06900700170017001700170010B007001920070019A008C4BDB78DBB2012B09D1FFF71FFE4268894B5A6012221A80FFF73CFC10BD854B9D
:402A0000DB78DBB2022B13D1824B9878FFF76CFD002800F04C8142687F4B5A605A68D1785A68927842EA01221A80FFF723FC10BD784BDB78DBB2032B05D02CE00A7811442B
:402A40000133DBB201E000237449724A9278D2B29A4203D90A7812F0FF0FEFD16D4B9B7813F0FF0F0BD06B4B9B78DBB26C4A127C934204D16B4C2046FFF7AEFC21460B78DE
:402A800013F0FF0F00F015810B78634A13805160FFF7F0FB10BD00F0ABF910BD13F0030317D0022B40F007815B490B80594B1B7903F07F0303EB43039B005B4A13449A786E
:402AC000D2B25A4B1A7000225A704B60FFF7D2FB10BD514902230B80554B1A78D2B2534B1A7000225A704B60FFF7C4FB10BD4A4B01221A804F4A5A60FFF7BCFB10BD464A0C
:402B000001231380434B1B794B490B445360FFF7B1FB10BD3F4A5278013A0A2A00F2CD80DFE812F04B00CB009600CB000B00CB00CB00CB001300CB003000364B9B78DBB2DB
:402B40003E4A1370FFF756FA10BD324B9B7803F0FF041BB1601EC0B2FFF7C6FC04B110B9002C40F0AC80334B1B78DBB29C4206D0304B1C700120324B1870FFF775FDFFF75A
:402B800039FA10BDFFF7E8FE002800F09A80214A1379DBB21279D2B22A490A702A4AD25C2549C95CD3B28B4204D00122244B1A70FFF7AEFCFFF71EFA10BD03F00303012B70
:402BC00017D04BB1022B7ED1124B9B7813F0FF0F7BD1FFF76DFE10BD0E4B9B78DBB2012B75D1134A137803F0FD031370FFF702FA10BD084B1B79DBB2012B6AD8054B9878B1
:402C00001B79DBB21149CA5C22EA0002CA54FFF7F1F910BD00600040C483FF1F043C0000E83C00004884FF1FD483FF1F7C81FF1FB783FF1FB583FF1FC083FF1F4684FF1F40
:402C4000B483FF1FB683FF1FB083FF1F4484FF1F03F00303012B17D04BB1022B3BD1224B9B7813F0FF0F38D1FFF7F0FD10BD1E4B9B78DBB2012B32D11C4A137843F0020385
:402C80001370FFF7B7F910BD174B1B79DBB2012B27D8154B98781B79DBB21549CA5C22EA0002CA54FFF7A6F910BD002010BD002010BD002010BD002010BD002010BD00200C
:402CC00010BD002010BD002010BD002010BD002010BD002010BD002010BD002010BD002010BD002010BD00BF00600040B783FF1F4484FF1F044B1B7813F0800F01D0024B83
:402D00005B780020704700BF00600040024B1878C0F38010704700BF8F450040014B1B689865704708ED00E04001C0B2014B1870704700BF06E400E04022014B1A607047E2
:402D400000E100E04022014B1A60704780E100E010B50446FFF7F6FF2046FFF7DFFF0720FFF7E2FFFFF7E8FF10BD00BF7222034B1A702022013B1A70704700BF8A640040BF
:402D800010B5FEF741FD0446074A137843F020031370013A137843F01003137000F01AF82046FEF735FD10BD9A64004008B5054B1B7823B9FFF7DAFF0122024B1A70FFF7B8
:402DC000DFFF08BD8081FF1F014B1878704700BF4A640040054A137843F0020313701032137843F002031370704700BFA243004008B5124B1B7803F00303012B02D0022B48
:402E000004D00FE00D4B1B79DBB20CE00B4B1B7903F07F0303EB43039B00094A13449B78DBB200E00023074A1268D35C022B02D1FEF778FF08BD002008BD00BF0060004080
:402E4000DC83FF1FBC83FF1F81F0004102E000BF83F0004330B54FEA41044FEA430594EA050F08BF90EA020F1FBF54EA000C55EA020C7FEA645C7FEA655C00F0E2804FEA54
:402E80005454D4EB5555B8BF6D420CDD2C4480EA020281EA030382EA000083EA010180EA020281EA0303362D88BF30BD11F0004F4FEA01314FF4801C4CEA113102D04042EC
:402EC00061EB410113F0004F4FEA03334CEA133302D0524263EB430394EA050F00F0A780A4F10104D5F1200E0DDB02FA0EFC22FA05F2801841F1000103FA0EF2801843FA38
:402F000005F359410EE0A5F120050EF1200E012A03FA0EFC28BF4CF0020C43FA05F3C01851EBE37101F0004507D54FF0000EDCF1000C7EEB00006EEB0101B1F5801F1BD3FA
:402F4000B1F5001F0CD349085FEA30004FEA3C0C04F101044FEA445212F5800F80F09A80BCF1004F08BF5FEA500C50F1000041EB045141EA050130BD5FEA4C0C404141EBE3
:402F8000010111F4801FA4F10104E9D191F0000F04BF01460020B1FA81F308BF2033A3F10B03B3F120020CDA0C3208DD02F1140CC2F10C0201FA0CF021FA02F10CE002F1FB
:402FC0001402D8BFC2F1200C01FA02F120FA0CFCDCBF41EA0C019040E41AA2BF01EB0451294330BD6FEA04041F3C1CDA0C340EDC04F11404C4F1200220FA04F001FA02F3DB
:4030000040EA030021FA04F345EA030130BDC4F10C04C4F1200220FA02F001FA04F340EA0300294630BD21FA04F0294630BD94F0000F83F4801306BF81F480110134013DC8
:403040004EE77FEA645C18BF7FEA655C29D094EA050F08BF90EA020F05D054EA000C04BF1946104630BD91EA030F1EBF0021002030BD5FEA545C05D14000494128BF41F047
:40308000004130BD14F580043CBF01F5801130BD01F0004545F0FE4141F470014FF0000030BD7FEA645C1ABF194610467FEA655C1CBF0B46024650EA013406BF52EA03356D
:4030C00091EA030F41F4002130BD00BF90F0000F04BF0021704730B54FF4806404F132044FF000054FF0000150E700BF90F0000F04BF0021704730B54FF4806404F1320405
:4031000010F0004548BF40424FF000013EE700BF42004FEAE2014FEA31014FEA02701FBF12F07F4393F07F4F81F06051704792F0000F14BF93F07F4F704730B54FF46074F5
:4031400001F0004521F0004120E700BF50EA010208BF704730B54FF000050AE050EA010208BF704730B511F0004502D5404261EB41014FF4806404F132045FEA915C3FF4AB
:40318000DCAE4FF003025FEADC0C18BF03325FEADC0C18BF033202EBDC02C2F1200300FA03FC20FA02F001FA03FE40EA0E0021FA02F11444C1E600BF70B54FF0FF0C4CF472
:4031C000E06C1CEA11541DBF1CEA135594EA0C0F95EA0C0F00F0DEF82C4481EA030621EA4C5123EA4C5350EA013518BF52EA033541F4801143F4801338D0A0FB02CE4FF0A0
:403200000005E1FB02E506F00042E0FB03E54FF00006E1FB03569CF0000F18BF4EF0010EA4F1FF04B6F5007F64F5407404D25FEA4E0E6D4146EB060642EAC62141EA555179
:403240004FEAC52040EA5E504FEACE2EB4F1FD0C88BFBCF5E06F1ED8BEF1004F08BF5FEA500E50F1000041EB045170BD06F0004646EA010140EA020081EA0301B4EB5C04D5
:40328000C2BFD4EB0C0541EA045170BD41F480114FF0000E013C00F3AB8014F1360FDEBF002001F0004170BDC4F10004203C35DA0C341BDC04F11404C4F1200500FA05F308
:4032C00020FA04F001FA05F240EA020001F0004221F0004110EBD37021FA04F642EB06015EEA430E08BF20EAD37070BDC4F10C04C4F1200500FA04F320FA05F001FA04F22C
:4033000040EA020001F0004110EBD37041F100015EEA430E08BF20EAD37070BDC4F1200500FA05F24EEA020E20FA04F301FA05F243EA020321FA04F001F0004121FA04F24A
:4033400020EA020000EBD3705EEA430E08BF20EAD37070BD94F0000F0FD101F00046400041EB010111F4801F08BF013CF7D041EA060195F0000F18BF704703F000465200D3
:4033800043EB030313F4801F08BF013DF7D043EA0603704794EA0C0F0CEA135518BF95EA0C0F0CD050EA410618BF52EA4306D1D181EA030101F000414FF0000070BD50EA70
:4033C000410606BF1046194652EA430619D094EA0C0F02D150EA013613D195EA0C0F05D152EA03361CBF104619460AD181EA030101F0004141F0FE4141F470014FF0000097
:4034000070BD41F0FE4141F4780170BD70B54FF0FF0C4CF4E06C1CEA11541DBF1CEA135594EA0C0F95EA0C0F00F0A7F8A4EB050481EA030E52EA03354FEA013100F08880B7
:403440004FEA03334FF0805545EA131343EA12634FEA022245EA111545EA10654FEA00260EF000419D4208BF964244F1FD0404F5407402D25B084FEA3202B61A65EB0305B1
:403480005B084FEA32024FF480104FF4002CB6EB020E75EB030E22BFB61A754640EA0C005B084FEA3202B6EB020E75EB030E22BFB61A754640EA5C005B084FEA3202B6EBE1
:4034C000020E75EB030E22BFB61A754640EA9C005B084FEA3202B6EB020E75EB030E22BFB61A754640EADC0055EA060E18D04FEA051545EA16754FEA06164FEAC30343EAEC
:4035000052734FEAC2025FEA1C1CC0D111F4801F0BD141EA00014FF000004FF0004CB6E711F4801F04BF01430020B4F1FD0C88BFBCF5E06F3FF6AFAEB5EB030C04BFB6EB3F
:40354000020C5FEA500C50F1000041EB045170BD0EF0004E4EEA113114EB5C04C2BFD4EB0C0541EA045170BD41F480114FF0000E013C90E645EA060E8DE60CEA135594EA2E
:403580000C0F08BF95EA0C0F3FF43BAF94EA0C0F0AD150EA01347FF434AF95EA0C0F7FF425AF104619462CE795EA0C0F06D152EA03353FF4FDAE1046194622E750EA41068E
:4035C00018BF52EA43067FF4C5AE50EA41047FF40DAF52EA43057FF4EBAE12E74FEA4102B2F1E04324BFB3F5001CDCF1FE5C0DD901F0004C4FEAC0024CEA5070B2F1004F3C
:4036000040EB830008BF20F00100704711F0804F21D113F13872BCBF01F00040704741F480114FEA5252C2F11802C2F1200C10FA0CF320FA02F018BF40F001004FEAC123F1
:403640004FEAD32303FA0CFC40EA0C0023FA02F34FEA4303CCE77FEA625307D150EA01331EBF4FF0FE4040F44000704701F0004040F0FE4040F40000704700BF80F00040BA
:4036800002E000BF81F0004142001FBF5FEA410392EA030F7FEA226C7FEA236C6AD04FEA1262D2EB1363C1BFD218414048404140B8BF5B42192B88BF704710F0004F40F4A6
:4036C000000020F07F4018BF404211F0004F41F4000121F07F4118BF494292EA030F3FD0A2F1010241FA03FC10EB0C00C3F1200301FA03F100F0004302D5494260EB40008F
:40370000B0F5000F13D3B0F1807F06D340084FEA310102F10102FE2A51D2B1F1004F40EBC25008BF20F0010040EA03007047490040EB000010F4000FA2F10102EDD1B0FA13
:4037400080FCACF1080CB2EB0C0200FA0CF0AABF00EBC25052421843BCBFD0401843704792F0000F81F4000106BF80F400000132013BB5E74FEA41037FEA226C18BF7FEA8A
:40378000236C21D092EA030F04D092F0000F08BF0846704790EA010F1CBF0020704712F07F4F04D1400028BF40F00040704712F100723CBF00F50000704700F0004343F019
:4037C000FE4040F4000070477FEA226216BF08467FEA23630146420206BF5FEA412390EA010F40F4800070474FF0000304E000BF10F0004348BF40425FEA000C08BF70472B
:4038000043F0964301464FF000001CE050EA010208BF70474FF000030AE000BF50EA010208BF704711F0004302D5404261EB41015FEA010C02BF84460146002043F0B643FA
:4038400008BFA3F18053A3F50003BCFA8CF2083AA3EBC25310DB01FA02FC634400FA02FCC2F12002BCF1004F20FA02F243EB020008BF20F00100704702F1200201FA02FC37
:40388000C2F1200250EA4C0021FA02F243EB020008BF20EADC7070474FF0FF3C06E000BF4FF0010C02E000BF4FF0010C4DF804CD4FEA40024FEA41037FEA226C18BF7FEAFD
:4038C000236C11D001B052EA530C18BF90EA010F58BFB2EB030088BFC81738BF6FEAE17018BF40F0010070477FEA226C02D15FEA402C05D17FEA236CE4D15FEA412CE1D005
:403900005DF8040B704700BF844608466146FFE70FB5FFF7C9FF002848BF10F1000F0FBD4DF808EDFFF7F4FF0CBF012000205DF808FB00BF4DF808EDFFF7EAFF34BF012008
:4039400000205DF808FB00BF4DF808EDFFF7E0FF94BF012000205DF808FB00BF4DF808EDFFF7D2FF94BF012000205DF808FB00BF4DF808EDFFF7C8FF34BF012000205DF82A
:4039800008FB00BF4FEA4002B2F1FE4F0FD34FF09E03B3EB12620DD94FEA002343F0004310F0004F23FA02F018BF404270474FF00000704712F1610F01D1420205D110F08B
:4039C000004008BF6FF0004070474FF0000070470E4B70B51E460E4C0025E41AA410A54204D056F8253098470135F8E700F086F9084B094C1E46E41AA4100025A54204D002
:403A000056F8253098470135F8E770BD083D0000083D0000083D0000103D000010B5431E0A44914204D011F8014B03F8014FF8E710BD03460244934202D003F8011BFAE711
:403A40007047000000000000256325642E256400256325642E30256400000000256325642E30300025632533642E2564000000003D3D3D3D3D204465627567204461746163
:403A8000203D3D3D3D3D0A00416363656C583D002C20416363656C593D0000002C20416363656C5A3D0000000A4F6D656761583D000000002C204F6D656761593D00000076
:403AC0002C204F6D6567615A3D0000000A526F6C6C3D00002C2050697463683D000000002C205961773D00000A48783D000000002C2048793D0000002C20487A3D00000043
:403B00000A54656D703D00000A0A0000496E6974202020202000000053746172742020202000000052656164792020202000000000510040200030510040100050510040FA
:403B40001000C05100401000000001400008800801408001800A0140800500140140000800400140000A004C01400002005001402000000000080140180600488000000A90
:403B80000140980600488000303132333435363738394142434445460000000001000000A43B000001000000E83C0000000000000000000001000000BC3B000001000000BE
:403BC000A43C000003000000E83B00000000000000000000000000000000000000000000E43B0000020A000000008103080002000100820240000A000100030240000A00E7
:403C000002030000040309042C0343007900700072006500730073002000530065006D00690063006F006E0064007500630074006F00720010035500530042005500410041
:403C4000520054003803430044004300200043006F006D006D0075006E00690063006100740069006F006E00200049006E0074006500720066006100630065002603430006
:403C80004400430020004400610074006100200049006E007400650072006600610063006500000009024300020101803209040000010202010305240010010424020205AD
:403CC0002406000105240100010705810308000A09040100020A0000040705820240000007050302400000001201000202000008B40432F20100010280010000F8B500BFA1
:403D0000F8BC08BC9E4670474D00000039100000F8B500BFF8BC08BC9E46704729000000303D00000881FF1F3000000038030000000000000000007D00FA000040000000FC
:403D40000090D00300C2010000000800C201000000080000A12000000000020000000000000000000000000000000000000000000000000000000000000000000000000087
:403D80000000000000000000000000000000000000000000000000000000000000000000000000000000000000000000000000000000000000000000000000000000000003
:403DC00000000000000000000000000000000000000000000000000000000000000000000000000000000000000000000000000000000000000000000000000000000000C3
:403E00000000000000000000000000000000000000000000000000000000000000000000000000000000000000000000000000000000000000000000000000000000000082
:403E40000000000000000000000000000000000000000000000000000000000000000000000000000000000000000000000000000000000000000000000000000000000042
:020000040003F7
:0200000480007A
:4000000001450040035200400264004004650040020301400405014035060140180701400D08014033090140190A0140380B0140301401401A150140351601401517014041
:40004000501801403C190140381A0140311B01400C400140094101400942014009430140044401400245014003460140094701400848014006490140024C0140085001407B
:40008000025101407E02204121457C4089388A72850D88728A0D8B388F08E21087018C40A708E6104060410349FF4AFF4BFF4DA04F0450185A045F01604062C06440654054
:4000C00066C068C06AC06CC06EC086069201A602AA04B002B204B401C060C102C501C620C705C819C9FFCAFFCBFFCDAFCE0FCF04D018D280D804DA04DB04DF01E040E2C064
:40010000E440E540E6C0E8C0EAC0ECC0EEC0000409021028188419101B1841204610482049104F2050085120521071029480A709C004C208C406D044D224E602EE018201E0
:4001400086028E01A602B402B601BE50D418D604D804DB04DD10DF0100820210042805020E200F0512201440176418051E421F282540260827042D802E202F203524374150
:400180003DE03F054440451047254C014E084F0857405A025C806005634067018740888092029A10A041A220C07DC2E0C4F4CA70CCF0CEF0D0E0D230D611D81DEE01830263
:4001C0008C0A8E11930298019A069C149E49A020A43FA83FAB01B040B103B207B420B618BF01D608D804D904DB04DC01DD90DF01000401A2070108110A100B0A0C100F01AD
:4002000010A81203172A188019A61A101B401C041E021F2520022225244029202B602F04309131043603370138A83A013B403F01404443084841492052105A085D406401B8
:4002400067016B2A70BC81408B48C08FC2CFC47FCA27CC8FCE8FD007D20CD612D810E604405149FF4AFF4BFF4F0150185A045F016040624064406540668068806A806C8075
:400280006E809E01AE01B001BE01C041C5ECC602C807C9FFCAFFCBFFCD83CE03CF01D018D280D401D604D804DA04DB04DF01E040E240E440E540E680E880EA80EC80EE80FE
:4002C0000D8017801E8041804580464048014D044F0155805D045E805F0166017401764077808201C280C480D098D208D6D0D880E201E6024050410249FF4AFF4BFF4DA09A
:400300004F0450185A045F01604062C06440654066C068C06AC06CC06EC082069201A204A602B004B402B601C010C106C505C601C702C815C9FFCAFFCBFFCDAFCE0FCF0488
:40034000D018D280D804DA04DB04DF01E040E2C0E440E540E6C0E8C0EAC0ECC0EEC00001090210A018011B614001460448284F805088520471028320A701C008C208C40C04
:40038000D028D214EA02EE080101022005010603081C0A020B120C100D0C0F1211011204141C15121601170C190C1A201C04201F211E240825042818290E2B102C072D0882
:4003C0002E18321F331C35013620370E3A083B083E40404249FF4AFF4BFF4F01501856025712580459045A045B045C225D205F016040624064406540668068806A806C806D
:400400006E80C042C9FFCAFFCBFFCD83CE03CF01D018DA04DF01E040E240E440E540E680E880EA80EC80EE80041505800D080E400F091440154017281C101D441E201F084A
:400440002407251827102C402D802E082F0837253DA640084280440846845E046C146D046F0175A07628772889488B04914092409301942A97049B049C409DA49E20A201D6
:40048000A344A510A610B102B320B748C0F0C2F0C4F0CAF0CCE0CEF0D0A5D640EA02EE0812012A0136013E40401645EC4702481349FF4AFF4BFF4D834E034F01501852801A
:4004C0005401560458045A045B045F016040624064406540668068806A806C806E808101840188018B018F02940195019B019C019F02B302B401B701B980BA80BE10BF04DF
:40050000D418D604D804D904DB04DC22DD20DF010714080209020C400E31120419801E0525082680368037143E113F80400245084620480849055008520459855E02620230
:400540006540662067407102728082028740960499409B149C409E84A211A340B404B501C060C2A8C402CC70CEB0D008D204D68BD8B1338137443B40500156026001660811
:40058000CCF0CE10D480D660D880331036208E08940397409E0A9F45A780CC3086028C01940397409E029F55A620A780E6108620940297409F15A620A780AB40E640EE8046
:4005C00003200810C008C2029810A32083209810A32008080B040F2088109810A710AB10C20EE2048001940297409F14AF81E620EA40EE108314874097409F14E2A0E64076
:40060000AC08AF04000701010A010C060D0110051A011C0500EA013F610806021F3C00001F00000C000C0030003C00000030600C001060005404890260000000600C000179
:40064000003060002A20110080001803073C603C000000A00000000432040500060C0E0005FFFFFF62A0F0410C0000000000080004040404229200010000000000004002C6
:40068000001030100010101200000000000000000000000000000000F3010C000030B300FF1000004C4FA330420200004F70900F0303000000204000087800070400000BBA
:4006C0000C7F0000010000000F038C4000047C380020AA00000000043206050004C0E0000AFFFFFF62A0F0410C00000000000212040404041111000100000000000040025A
:400700000010301000101012000000000000000000000000000000004000000000000000C0000000007F7F00000000000055550055000000410000000000000000000000F9
:400740000000000000000000000000000000000000000000000000000000000000000000000000000000000000000000000000000000000000000000000000000000000079
:400780000000000000000000000000000000000000000000000000000000000000000000000000000000000000000000000000000000000000000000000000000000000039
:4007C00000000000000000000000000000000000000000000000000000000000000000000000000000000000000000000000000000000000000000000000000000000000F9
:4008000000000000000000000000000000000000000000000000000000000000000000000000000000000000000000000000000000000000000000000000000000000000B8
:0200000490006A
:0400000000004005B7
:0200000490105A
:04000000BC90ACAF55
:0200000490303A
:02000000EE61AF
:0200000490402A
:4000000000000000000000000000000000000000000000000000000000000000000000000000000000000000000000000000000000000000000000000000000000000000C0
:400040000000000000000000000000000000000000000000000000000000000000000000000000000000000000000000000000000000000000000000000000000000000080
:400080000000000000000000000000000000000000000000000000000000000000000000000000000000000000000000000000000000000000000000000000000000000040
:4000C0000000000000000000000000000000000000000000000000000000000000000000000000000000000000000000000000000000000000000000000000000000000000
:0200000490501A
:0C00000000012E12306900012E2C1ECAD7
:00000001FF