:400000000080002011000000F5130000F513000008B5044B1A6803F53F5302331A6001F003FA00BFFA46004010B5054C237833B9044B13B10448AFF300800123237010BD69
:40004000E081FF1F0000000088640000084B10B51BB108480849AFF300800848036803B910BD074B002BFBD0BDE81040184700BF0000000088640000E481FF1F0881FF1FB9
:4000800000000000B0F57A7F06D808B500F2E73080B201F071FB08BD704700BFB0F57A7F06D808B500F2E73080B201F06BFB08BD704700BFB0F57A7F06D808B500F2E730EC
:4000C00080B201F0ADFB08BD704700BFB0F57A7F06D808B500F2E73080B201F0A7FB08BD704700BF10B5214B1B78214B1A68214B1B689A4202D11E4B1B6833B91C4C2068A0
:40010000FFF7C0FF22681B4B1A601B4B1A681B4B1B689A4202D1184B1B6833B9164C2068FFF7BCFF2268154B1A60154B1A68154B1B689A4202D1124B1B6833B9104C20682B
:40014000FFF7B8FF22680F4B1A600F4B1A680F4B1B689A4202D10C4B1B6833B90A4C2068FFF7B4FF2268094B1A6010BD676500400C83FF1FC083FF1FF482FF1F1883FF1F33
:40018000C882FF1FE882FF1FD882FF1F6483FF1F08B501F023FB01F075FB002001F0ECFA002001F0EFFA002001F03AFB002001F03DFB08BD0000000038B500231A4602E00E
:4001C000C15C0A4401330C2BFADDD2B2837B9A427BD104468378C27803EB02233E4D2B600379427903EB02236B608379C27903EB0223C3F58063AB60037A427A03EB0223AF
:40020000C3F58063EB60007B783803F0B7FB30A3D3E9002303F042FD03F0D8FE2F4B1860E07AC0F1780003F0A9FB29A3D3E9002303F034FD03F0CAFE294B1860E86803F096
:40024000CFFF03F0ADFB00224FF0814303F048FA02460B46104603F100410022214B03F0F3FB0022204B03F0EFFB03F0AFFE1F4B1860A86803F0B4FF03F092FB00224FF0A5
:40028000814303F02DFA0022164B03F0DDFB0022154B03F0D9FB03F099FE154B1860686803F09EFF03F07CFB00224FF0814303F017FA00220F4B03F0C7FB00220A4B03F0D9
:4002C000C3FB03F083FE0C4B186038BDAFF3008085EB51B81E052E40FC81FF1F0883FF1FD482FF1F00003E400000603FC883FF1F0483FF1F00004440DC82FF1FAFF30080D7
:4003000010B501F083FD174B1870A5280BD1164B1B6943B9A522154B1A700123144A1370114A136110BD104B1B69012B09D1104A12780E2A05D80D4B985401320C4B1A708B
:4003400010BD012B0DD10A4B19780F2909D10024084B1C600548FFF72FFF054B1C70024B1C6110BD3C82FF1FFC81FF1F6C83FF1FE082FF1F1C82FF1F00230E4A13600E4AD1
:4003800013600E4A13600E4A13600E4A13600E4A13600E4A13600E4A13600E4A13600E4A136000230D4A13600D4A13600D4A1360704700BFB083FF1F4082FF1FB483FF1FF5
:4003C000CC83FF1F6083FF1F6883FF1FCC82FF1F3882FF1FC483FF1FF082FF1F1C83FF1F4482FF1F1083FF1F0B2940F05D810378552B40F05B8110B50023AF4A1360AF4A65
:40040000136007E0C45CAC490A6822440A600133AA4A1360A94B1B68092BF3DD827AA64B1B789A4240F0448104464378513B052B00F24081DFE813F006005800AA00FC0062
:400440003E011E01C078A37843EA002000B203F0C7FE03F0A5FA00224FF07C5303F0F4FA0022974B03F0F0FA03F0B0FD954B18606079237943EA002000B203F0B1FE03F08F
:400480008FFA00224FF07C5303F0DEFA00228C4B03F0DAFA03F09AFD8B4B1860E079A37943EA002000B203F09BFE03F079FA00224FF07C5303F0C8FA0022814B03F0C4FA36
:4004C00003F084FD814B1860607A237A43EA002003F054FA00227E4B03F0E0FB03F076FD7C4B1860512010BDC078A37843EA002000B203F075FE03F053FA00224FF07C537B
:4005000003F0A2FA0022744B03F09EFA03F05EFD724B18606079237943EA002000B203F05FFE03F03DFA00224FF07C5303F08CFA0022694B03F088FA03F048FD684B1860F8
:40054000E079A37943EA002000B203F049FE03F027FA00224FF07C5303F076FA00225E4B03F072FA03F032FD5E4B1860607A237A43EA002003F002FA0022554B03F08EFBC8
:4005800003F024FD534B1860522010BDC078A37843EA002000B203F023FE03F001FA00224FF07C5303F050FA00224F4B03F04CFA03F00CFD4D4B18606079237943EA00204E
:4005C00000B203F00DFE03F0EBF900224FF07C5303F03AFA0022444B03F036FA03F0F6FC434B1860E079A37943EA002000B203F0F7FD03F0D5F900224FF07C5303F024FA01
:400600000022394B03F020FA03F0E0FC394B1860607A237A43EA002003F0B0F900222C4B03F03CFB03F0D2FC2A4B1860532010BDC278837843EA02232F4A13604279037981
:4006400043EA02232D4A1360C279837943EA02232B4A1360407A237A43EA002003F08EF900221B4B03F01AFB03F0B0FC194B1860542010BD427903791B0443EA0263C27841
:4006800043EA0223827813431E4A1360427A037A1B0443EA0263C27943EA022382791343194A1360562010BD0020704700207047012010BD002010BDE482FF1F1483FF1F1A
:4006C00000003040B483FF1F4082FF1FB083FF1F00005940CC82FF1F00409F406883FF1F6083FF1FCC83FF1F00806640F082FF1FC483FF1F3882FF1F1083FF1F4482FF1FE1
:400700001C83FF1FBC83FF1FD082FF1F08B502F031FE204B1870552806D11F4B5B691BB901221D4B5A6108BDA0F15103DBB2032B12D8194B5B69012B0ED1174B9B695BB9C6
:40074000164B55221A7058700222154B1A70124B01229A615A6108BD0F4B9B69012B14D10F4A1378591CC9B211700C4AD0540B290FD11046FFF738FE0A4B18600023084A30
:400780001370054A9361536108BD034B00229A615A6108BDEC82FF1FFC81FF1F2083FF1FB883FF1FAC83FF1F10B504460846114601F098F9204601F02DF910BD2DE9F041BA
:4007C00084B001F011FE0028FBD04A4801F0BEFD01F00AFE0028FBD0474B1868474BD3F80080474B1D68474C03F0DAF806460F46404603F0D5F8CDE90001284603F0D0F883
:40080000CDE902012046404932463B4604F082FA204601F09BFD01F0E7FD0028FBD03B4B18683B4BD3F800803A4B1D68354C03F0B7F806460F46404603F0B2F8CDE9000171
:40084000284603F0ADF8CDE902012046324932463B4604F05FFA204601F078FD01F0C4FD0028FBD02D4B18682D4BD3F800802D4B1D68244C03F094F806460F46404603F060
:400880008FF8CDE90001284603F08AF8CDE902012046254932463B4604F03CFA204601F055FD01F0A1FD0028FBD0204B1A68204B1B6820490968134C009120461E4904F0D6
:4008C00029FA204601F042FD01F08EFD0028FBD01A4B18680B4C03F063F802460B462046174904F017FA204601F030FD04B0BDE8F08100BF90640000B483FF1F4082FF1FAC
:40090000B083FF1F4882FF1FA86400006883FF1F6083FF1FCC83FF1FCC640000F082FF1FC483FF1F3882FF1FF06400001083FF1F4482FF1F1C83FF1F0C650000CC82FF1F7B
:400940002465000080B562B601F0BEF8394800210A46FFF729FF384801F01AFA374B1B6813B9374802F034FD01F054F9FFF710FC0020014601F082FB01F0B8FB0028FBD046
:4009800001F098FC00242F4B1C7001F031FA01F00DFA2D4801F05AFA2C4B1C7002F0DCFC02F0BAFC2A4802F0A9FCFFF7E5FC00F065F8284821462246FFF7F6FEDFF8B880E0
:4009C000C8F80040244F3C60244E3460244D2C60244B1C604FF40072DA609A605A6042F2107001F037F9204821462246FFF7DCFEC8F800403C6034602C60104B1B6843B1ED
:400A0000FFF7DCFE00F09CF84FF4FA7001F022F9F3E7164B1B681D2B05DD154801210022FFF7C2FEE9E7134801210022FFF7BCFEE3E700BF30650000E50000000C81FF1F9D
:400A4000410B0000E082FF1F01030000B883FF1F0D0700003C650000C882FF1FF482FF1F0C83FF1FFC81FF1F486500001C82FF1F5465000060650000D882FF1F0023184A70
:400A80001360184A1360184A1360184A1360184A1360184A1360184A1360184A1360184A1360184A1360184A1360184A1360184A1360184A1360184A1360184A1360184AE6
:400AC0001360184A1360184A1360184A1360184A1360184A1360184A1360184A13607047F083FF1F3C84FF1FFC83FF1F3884FF1F3084FF1F4884FF1FF883FF1F1484FF1F08
:400B00004C84FF1FE883FF1F0C84FF1FE083FF1F2884FF1FDC83FF1F3484FF1FD483FF1FE483FF1F4084FF1F0484FF1F0084FF1FF483FF1FD083FF1F2C84FF1F0884FF1F50
:400B40002DE9F04F83B0AA4B186842F2283303FB00F0002801DA00F2FF30801203F040FB8246A44B186803F03BFB02F019FF00224FF0814302F0B4FD00229F4B02F064FF84
:400B800000229E4B02F060FF03F020FA04469C4B186803F025FB02F003FF00224FF0814302F09EFD0022944B02F04EFF0022934B02F04AFF03F00AFA0546924B186803F055
:400BC0000FFB02F0EDFE00224FF0814302F088FD00228D4B02F038FF0022884B02F034FF03F0F4F98046894E3068894B196803F043FA07463060DFF87C92D9F80000854B38
:400C0000196803F039FA0646C9F800002046824903F088FB30B92046804903F0A1FB10B17E4C00E07C4C7E4B1C6028467A4903F079FB30B92846794903F092FB10B1774D84
:400C400000E0754D774B1D604046774903F06AFB38B94046754903F083FB20B1DFF8CC8101E0DFF8C481724BC3F800802846394603F000FA05466F4B18602046314603F03E
:400C8000F9F904466C4B186028466C4B196803F0F3F9834620466A4B196803F0EDF981465846684903F05CFB38B95846664903F039FB20B1DFF890B101E0DFF888B15F4BBD
:400CC000C3F800B048465F4903F04AFB38B948465D4903F027FB20B1DFF86C9101E0DFF86491574BC3F80090284602F059FE0022564B02F0A9FE06460F46584602F050FE10
:400D00000022002302F0A0FE02460B463046394602F0E8FC06460F46DFF85CB12846DBF8001003F0A7F902F03BFE02460B463046394602F0D7FC03F049F90646444B18600B
:400D4000204602F02DFE0022404B02F07DFECDE90001484602F024FE0022002302F074FE02460B46DDE9000102F0BCFCCDE90001384F2046396803F07DF902F011FE0246D3
:400D80000B46DDE9000102F0ADFC03F01FF98146314B1860CBF800503C6030462F4B196803F068F907462E4B186048462D4B196803F060F906462C4B186038462B4B196885
:400DC00003F05AF983463046294B196803F054F9814658461B4903F0C3FA00284ED15846194903F09FFA00284AD0DFF85CB047E0FC81FF1F0482FF1F00003E400000603F45
:400E00000882FF1F0082FF1F00004440F082FF1F0883FF1FD482FF1F0000F0C10000F041C883FF1F0483FF1F000020C200002042DC82FF1F4C84FF1F1484FF1F4084FF1F03
:400E40000484FF1F00409C4500409CC50000E03F0084FF1F2884FF1FF483FF1F6883FF1F3084FF1F6083FF1F4884FF1FD483FF1FE483FF1FC483FF1FDC83FF1FDFF870B24F
:400E80009A4BC3F800B04846994903F069FA38B94846984903F046FA20B1DFF8589201E0DFF84C92944BC3F80090384602F078FD0022924B02F0C8FD04460D46584602F06F
:400EC0006FFD0022002302F0BFFD02460B462046294602F007FC04460D46DFF85CB23846DBF8001003F0C6F802F05AFD0022844B02F0AAFD02460B462046294602F0F2FB7C
:400F000003F064F804467F4B1860304602F048FD00227A4B02F098FDCDE90001484602F03FFD0022002302F08FFD02460B46DDE9000102F0D7FBCDE90001734D30462968E3
:400F400003F098F802F02CFD00226D4B02F07CFD02460B46DDE9000102F0C4FB03F036F881466A4B1860CBF800702E604046684B196803F07FF80546664B1860664B1968DD
:400F800003F07AF880465A4903F0EAF938B94046584903F0C7F920B1DFF8588101E0DFF850815D4BC3F80080284602F0F9FC00225A4B02F049FD06460F46404602F0F0FC7C
:400FC0000022002302F040FD02460B463046394602F088FB06460F46DFF860812846D8F8001003F047F802F0DBFC00224C4B02F02BFD02460B463046394602F073FB02F025
:40100000E5FF0646474B1860C8F800502046494603F032F80146304603F02EF80146504603F02AF880464846214603F023F8314603F020F80146504603F01EF8074604F119
:401040000040494603F016F80146304603F014F80146504603F010F805462046494603F009F8314603F006F80146504603F004F804464046002103F055F938B940462A4988
:4010800003F06EF920B1DFF8A08001E04FF00008264BC3F800803846002103F043F930B93846214903F05CF910B11F4F00E000271F4B1F602846002103F034F930B928462E
:4010C000194903F04DF910B1174D00E00025194B1D602046002103F025F988BB2046124903F03EF968B3104C2BE000BFD483FF1F00409C4500409CC5E483FF1F0000244023
:4011000000002E400884FF1F0C84FF1F2C84FF1FCC83FF1FF883FF1F3484FF1F0000144000002840D083FF1F00401C463884FF1FFC83FF1F3C84FF1FE883FF1FE083FF1F11
:401140000024964B1C60964B1A6801321A601B68312B02DD3222924B1A60924B1868924902F08AFF06464046314603F0F9F808B18E4B1E608E4B18688B4902F07DFF06469E
:401180003846314603F0ECF808B18A4B1E608A4B1868854902F070FF06462846314603F0DFF808B1854B1E60854B18687E4902F063FF05462046294603F0D2F808B1774B0E
:4011C0001D607A4B1C68774B1C607A4B1A68784B1A607A4B1A68784B1A60704B1A68784B1A606F4B1B681E2B37DC204602F0D8FB02F028F90022734B02F026FC02F0BEFEF0
:40120000714B18606B4C206802F0CAFB02F01AF900226C4B02F018FC02F0B0FE6B4B1860664C206802F0BCFB02F00CF90022654B02F00AFC02F0A2FE654B1860574C206849
:4012400002F0AEFB02F0FEF800225E4B02F0FCFB02F094FE5F4B186008E000235D4A13605B4A1360594A1360574A13605A4B1B68002B3BD00120002100F034FC574C584E21
:40128000584B186803F076F802462046314603F041FD204600F0BEFB534D284600F0BAFB0120052100F01EFC504B186803F062F802462046314603F02DFD204600F0AAFB9C
:4012C000284600F0A7FB01200A2100F00BFC484B186803F04FF802462046314603F01AFD204600F097FB284600F094FB3A4B1B68002B50D00020014600F0F4FB2B4B1868CB
:4013000002F04EFB00222F4B02F0C8FC02F036FE80B200F005FC344C204600F07BFB0020042100F0DFFB234B186802F039FB0022244B02F0B3FC02F021FE80B200F0F0FB18
:40134000204600F067FB0020082100F0CBFB1B4B186802F025FB00221A4B02F09FFC02F00DFE80B200F0DCFB204600F053FB00200C2100F0B7FB094B186802F011FB00222D
:40138000104B02F08BFC02F0F9FD80B200F0C8FB204600F03FFB03B0BDE8F08FF083FF1F1C82FF1F4484FF1F000016433884FF1FEC83FF1FFC83FF1F1084FF1F3C84FF1F05
:4013C000D883FF1F000024400C83FF1FF482FF1FC882FF1FD882FF1F0C81FF1F1884FF1F6C6500000884FF1F346500002C84FF1FD083FF1FFEE700BF08B5094B1A681044AC
:40140000084BC31A802B02DC054B186005E002F0D7FF0C2303604FF0FF32104608BD00BF1081FF1F2885FF1F08B5104E104D16E029686B68AC68002204E051F8040B43F8A9
:40144000040B0432A242F8D1E868002203E0002143F8041B04328242F9D11035013E002EE6D102F0B3FFFFF76DFAFEE701000000C468000008B5124A124B1A60124A1368A3
:4014800043F40073136000230AE0032B03D80F4A52F8231000E00E490E4A42F8231001332F2BF2D90C4B1A780C4B1A70094A0C4B1A6000F0BFF800220A4B1A6008BD00BFC4
:4014C0000004FA050CED00E014ED00E000000000F51300000080FF1FBC7600400481FF1F08ED00E00081FF1FFEE700BFF0B40022174611E050F82760F3B226F0FF0608E0D1
:4015000001EB420511F812406D78A5550132013BDBB2002BF4D10137202FEBD9F0BC7047064B1B78DBB203F00701054A11701B09013213704422034B1A707047CF01004980
:401540006E5800407658004038B51022294B1A801823294A13703F2102321180023213704FF4507102321180023213700622234B1A705222A3F580731A70214B1B78DBB268
:40158000204A137040F618021F4B1A8041F25122023B1A80002419250CE01C4B1B7803F0010343EA440404F003044FF4F07000F03FFB013D0DB1032CEFD115B90320FFF71F
:4015C00093FF134A4FF48073138007231370002310490B7048200231087013700532137002220D4B1A700D4A137843F00703137038BD00BF8040004082400040004300405E
:401600000F010049A14600402242004025420040044000400640004001400040A243004008B50A46002102F002FF08BD08B502F0F3FE08BD10B572B60122354B1A70FFF7D4
:4016400083FF344A137843F00403137000240CE0314963001A1952000A4423445B00C8589188FFF7DDFF0134E4B20A2CF0D9002410E02949A3001A1952000A4452F8440F32
:4016800023445B000B445168B3F84C20FFF7CEFF0134E4B2012CECD94FF090401F49FFF725FF1F4A137843F0020313701032137843F0020313701B4C237843F040032370F6
:4016C000A2F58632513A137843F010031370164816490A22FFF7AAFF154816490822FFF7A5FF154815490822FFF7A0FF144815490822FFF79BFF144A137843F0080313701C
:40170000FFF70EFF114821460E22FFF78FFF10BD00480040E8460040706500008400004803500140A0430040F0510040FC0600482251004008070048425100401007004810
:40174000625100401807004822430040B0430040024A137843F080031370704775650040014B1880704700BF086A0040014B1880704700BF886A0040014B1880704700BF64
:40178000486A0040014B1880704700BF686A004008B5114A137803F0C00343F0090313701F32137843F0010313700132137843F00103137040F69F70FFF7D2FF40F69F7051
:4017C000FFF7D4FF40F2CF70FFF7D6FF40F2E730FFF7D8FF08BD00BF7565004008B5054B1B7823B9FFF7D4FF0122024B1A70FFF7AFFF08BD2082FF1F024A137843F080033B
:401800001370704777640040014B1880704700BF0C680040014B1880704700BF8C680040014B1880704700BF4C680040014B1880704700BF6C68004008B5114A137803F065
:40184000C00343F0090313701F32137843F0010313700132137843F00103137040F69F70FFF7D2FF40F69F70FFF7D4FF40F2CF70FFF7D6FF40F2E730FFF7D8FF08BD00BFE5
:401880007764004008B5054B1B7823B9FFF7D4FF0122024B1A70FFF7AFFF08BD2182FF1F10B50B4C237803F09F032370237803F0F00323702378184340F0100020700120CA
:4018C00000F0DEF9237803F0EF03237010BD00BF2051004038B505460E4C237843F020032370237803F0BF032370002000F0C8F9237803F0F003237023781D4345F01005AE
:401900002570012000F0BCF9237803F0EF03237038BD00BF2051004070B5354B1A7802F08002D2B21A7033490A7802F0F00242F00F020A7001310A7802F0F0020A70013138
:401940000A7802F0F0020A701A7802F0DF021A701A7842F040021A704FF4CA76002000F08FF9234D2B7843F010032B70012000F087F9214B1C78E4B22B7803F0EF032B70AF
:40198000002000F07DF904F00804E4B22B7843F010032B70012000F073F92B7803F0EF032B7014B90A2000F06BF9013E0CB1002ED4D10F4A137803F0BF031370137803F033
:4019C0008003DBB213700232137803F0F00313700132137803F0F00343F00F0313700132137803F0F00343F00F03137070BD00BF20510040225100402151004010B5044643
:401A0000FFF78AFF2009FFF765FF04F00F00FFF761FF10BD38B505460078012404E0FFF7EDFF285D0134E4B20028F8D138BD00BF10B50446FFF770FF2009FFF731FF04F037
:401A40000F00FFF72DFF10BD08B5282000F002F90320FFF725FF052000F0FCF80320FFF71FFF0F2000F0F6F80320FFF719FF012000F0F0F80220FFF713FF052000F0EAF8A3
:401A80000620FFF7D5FF0E20FFF7D2FF2C20FFF7CFFF0820FFF7CCFF0120FFF7C9FF0C20FFF7C6FF0320FFF7C3FF052000F0D2F808BD00BF08B50C20FFF7BAFF0122014B3D
:401AC0001A7008BD2282FF1F08B5054B5B7823B9FFF7BAFF0122024B5A70FFF7EBFF08BD2282FF1F08B5032819D8DFE800F002070D1381F08000FFF79BFF08BDA1F14000F8
:401B0000C0B2FFF795FF08BDA1F16C00C0B2FFF78FFF08BDA1F12C00C0B2FFF789FF08BD00B585B000238DF80E30092210E0134BA3FB0013DB08194603EB83035B00C31AD0
:401B4000303304A8104400F80C3C0846013AD2B20928ECD8094BA3FB0013DB0803EB83035B00C31A303304A9114401F80C3C01AB9818FFF74FFF05B05DF804FBCDCCCCCCAC
:401B8000024A137843F080031370704777650040014B1870704700BF87650040014B1878704700BF67650040014B1880704700BF4C6A0040014B188880B270478C6A004013
:401BC000014B1880704700BF0C6A004008B501E0FFF7F0FFFFF7E2FF10F0080FF8D108BD08B541F28730FFF7DFFF41F28730FFF7E7FF00F025F8064A137843F010031370E4
:401C000000F022F8FFF7E2FF0120FFF7C1FF08BD9765004008B5054B1B7823B9FFF7E0FF0122024B1A70FFF7ABFF08BD2482FF1F0230800803D000BF01380046FCD1704728
:401C4000EFF3108072B6704780F31088704700BF01BE704710B5044605E0084B1868FFF7E7FFA4F50044B4F5004FF6D8034B586800FB04F0FFF7DCFF10BD00BF1481FF1FC9
:401C800008B5034B1B7A03FB00F0FFF7D1FF08BD1481FF1F70B504460E46074B1D681F2802D90020FFF7D4FF04F01F04103455F8240045F8246070BD08ED00E038B50446ED
:401CC0000D46072902D90020FFF7C2FF1F2C02D90020FFF7BDFF04F01F0000F1604000F564406D01EDB2057038BD00BF134B1B78DBB20360124A127843EA02230360114A6D
:401D0000127843EA024303600F4A127843EA026303600E4B1B78DBB243600D4A127843EA022343600B4A127843EA024343600A4A127843EA02634360704700BF03010049B0
:401D400004010049EC4600400201004901010049000100490501004906010049014B1B685865704708ED00E04001C0B2014B1870704700BF05E400E02022014B1A60704786
:401D800000E100E02022014B1A60704780E100E010B50446FFF7F6FF2046FFF7DFFF0720FFF7E2FFFFF7E8FF10BD00BF7222034B1A702022A3F580731A7070478865004020
:401DC00010B5FFF73DFF0446084A137843F020031370A2F58072137843F01003137000F043F82046FFF730FF10BD00BF9865004008B5054B1B7823B9FFF7D8FF0122024BD7
:401E00001A70FFF7DDFF08BD2582FF1F014B1878704700BF4B650040014B1B681865704708ED00E04001C0B2014B1870704700BF04E400E01022014B1A60704700E100E06D
:401E40001022014B1A60704780E100E010B50446FFF7F6FF2046FFF7DFFF0720FFF7E2FFFFF7E8FF10BD00BF054A137843F0040313701032137843F004031370704700BF40
:401E8000A2430040F8B5FFF7DBFE0746404A137843F0010313701032137843F00103137001263C4B1E700225943B1D7002F5E2521B32137803F07F0313700020FFF7E0FE30
:401EC000354C237803F0F9032370344A137803F0DF0313702378334323703046FFF7D0FE2820FFF7CDFE2E4B1A7802F07F021A701A7802F0BF021A7023782B43237028461B
:401F0000FFF7BEFE237843F0040323700024254B1C7001331C703846FFF796FE17200721FFF7CCFE17202049FFF7B4FE18200721FFF7C4FE18201D49FFF7ACFE1520072185
:401F4000FFF7BCFE15201A49FFF7A4FE20460721FFF7B4FE20461749FFF79CFE30460721FFF7ACFE30461449FFF794FE28460721FFF7A4FE28461149FFF78CFE0C20072192
:401F8000FFF79CFE0C200E49FFF784FEF8BD00BFA54300409D6000409443004012600040F851004084600040752900004527000071290000B9280000F12800002D29000053
:401FC0007D29000008B5214B18700023204A1370204A1370204A1370204A1370204A1370204A1370204A1370204B4FF400021A604FF080721A604FF400121A6001221A60AB
:4020000002221A6004221A6011B1012906D00BE0174A137803F0FE0313700AE0144A137843F00103137004E0114A137843F00103137003220F4B1A708022203B1A70012090
:40204000FFF7F6FD04220C4B1A7008BDFB84FF1FFA84FF1F6C84FF1F6D84FF1F6E84FF1FFE84FF1F6F84FF1F6B84FF1F00E100E009600040286000401260004038B505466B
:402080000C46064B1B7823B9FFF7FCFE0122034B1A7028462146FFF795FF38BD2682FF1F00230A4A13700A4A13700A4A13700A4A13700A4A13700A4A13700A4A13700322E0
:4020C000094B1A708022203B1A707047FA84FF1F6C84FF1F6D84FF1F6E84FF1FFE84FF1F6F84FF1F6B84FF1F28600040014B1878704700BF6D84FF1F00EB40008000024B1C
:4021000018444078704700BF8C84FF1F431EDBB2072B3BD8F0B4074600EB40039B001C4C2344DB889BB2C3F500739A4207D900EB40039B002344DA88C2F5007292B200EBAA
:4021400040039B00124C2344DB7843EA1223114D04012E192B55D3B2737039B909E0CE5C3D010D4C665501339BB200E000239342F5D3430003449B00054A134400225A7046
:402180005A79D2B20001054B1A54F0BC704700BF8C84FF1FFC5F004078600040FE5F0040431EDBB2072B0BD8430003449B00054A134400225A705A79D2B20001024B1A549C
:4021C000704700BF8C84FF1FFE5F00400246002001E0013080B2135C002BFAD1704700BF10B4FF2400220EE00A4B9B5C03EB43039B0009490B449B78DBB2834201D11446D3
:4022000002220132D2B2012AEED920465DF8044B704700BF5884FF1F9484FF1F10B5204C2079FFF7DDFF237813F0800F0ED06378DBB2212B2FD11B4B07221A80C0EBC00032
:40224000194A1044586000F0EBFA10BD144B5B78DBB2202B02D0222B10D01EE0114A07231380C0EBC00310490B4453600F4A135C43F00103135400F0FBFA10BD084B9B78E7
:402280000B4A22F81030094A135C43F00203135400F086F910BD002010BD002010BD00BF006000407C84FF1F2481FF1F6084FF1F6484FF1F10B500241F4B1C701F4B1C70DB
:4022C0005C700AE01E4B185DC0B2431EDBB2072B01D8FFF765FF0134E4B2012CF2D9194B1B7813F0FF0F1AD0154B1B7813F0FF0F17D0154B1B7813F0FF0F14D0114B1B780E
:40230000DBB2082B11D80E4B1B78DBB2082B0ED80D4B1B78DBB2082B0BD8002010BD012010BD012010BD012010BD012010BD012010BD012010BD00BF2782FF1F6084FF1FCB
:402340005484FF1F5084FF1F5884FF1F2DE9F8438046224B1B78224AD65CF6B2FFF736FF05460027344606EB46039B001D4A13441B899BB2AB4208D206EB46039B00134490
:40238000B3F808901FFA89F900E0A946304608EB07014A46FFF7BAFEC9EB0505ADB245B906EB46039B000F4A13441B899BB2994510D14F44BFB204EB44039B00094A1344F2
:4023C0005B7813F0FF0FF6D025B9304600210A46FFF79CFE002DC5D1BDE8F8832782FF1F5084FF1F8C84FF1F08B5034B1B78034AD05CFFF781FE08BD2782FF1F5084FF1F0A
:40240000C37803F0030390F9020000280FDA032B06D002F001030B48C15442F001020EE0C2F380030848C15442F0040207E0032B05D0C2F340030548C15442F002021046A2
:40244000704700BF5084FF1F5884FF1F5484FF1F1C4B19781C4A13880B449BB2138000230EE01A4A51680978C9B21948C1545168013151600133DBB21188013989B2118040
:40248000124A128892B20AB1072BEAD90D4A1278D2B2082A00D05BB10E490A7882F080020A700F210C4A117002210C4A117004E0022209490A7009490A70094A1370014AB6
:4024C000137070476B84FF1FF884FF1F7C84FF1F006000407084FF1F6A84FF1FFA84FF1F8884FF1F0222074B1A708022064B1A700F22064B1A700023054A1370054A137009
:4025000001207047FA84FF1F7084FF1F6A84FF1F6B84FF1F8884FF1F08B5FFF799FF08BD10B4184B197801F00F010239C9B2164A13880B449BB21380002010E0134B5C68F7
:40254000134A125CD2B222705A6801325A600130C0B20139C9B21A88013A92B21A800B4B1B889BB20BB10029E8D10A4B19700A4A137883F0800313700B22084B1A705DF83F
:40258000044B704729600040F884FF1F7C84FF1F006000408884FF1F7084FF1F6A84FF1F0623064A1370064A13708022054B1A700022054B1A700120704700BFFA84FF1F32
:4025C0006A84FF1F7084FF1F8884FF1F064B9B6843B1054B9A6810709A6804490988518000229A60704700BF7C84FF1FF884FF1F08B5134B1A78D2B21A701B78DBB213F0A0
:40260000800F02D00F4A137008BD0220FFF7DEFF0D4B1B7803F06003202B05D0402B06D043B900F095FC06E000F0E0FE03E000F037FE00E0002010B90322024B1A7008BD3E
:40264000286000406A84FF1F0060004008B5084B1978084A13880B449BB213800022064B1A700120FFF7B2FF0322044B1A7008BD6B84FF1FF884FF1FFA84FF1F6A84FF1F52
:4026800008B50B4B1B78DBB2042B06D0062B07D0022B0BD1FFF7DAFF08BDFFF741FF08BD0320FFF793FF0322024B1A7008BD00BFFA84FF1F6A84FF1F08B50022044B1A70B7
:4026C0000120FFF783FF0322024B1A7008BD00BFFA84FF1F6A84FF1F08B50B4B1B7813F0FF0F07D0084A137843F0800307490B70002313700022064B1A700120FFF766FF0E
:402700000322044B1A7008BDFE84FF1F08600040FA84FF1F6A84FF1F08B5094B1B78DBB2042B06D0062B07D0022B07D1FFF7F4FE08BDFFF7C1FF08BDFFF7CEFF08BD00BF34
:40274000FA84FF1F08B5284B1B78DBB213F0100F48D013F0800F0CD003F00F03012B16D1FFF746FF214B1B7813F0800F11D1012312E013F0400F03D0FFF7CEFF01230BE0F2
:4027800013F0200F07D0FFF77BFF012304E0002302E0002300E0002323B3134B1B7813F0800F1FD1124B1B78124A12781343124A13701278D2B29A4214D10C4B1B78DBB2D3
:4027C000094A127812F0800F07D1084B1B78DBB2054A1370137803F00F03044A1278D2B29342EAD108BD00BF286000406A84FF1F7084FF1F8884FF1F296000400022064B02
:402800001A80064B9B682BB1044A916800230B7092685380704700BFF884FF1F7C84FF1F08B50F4B1B889BB213B9FFF75BFE15E002220C4B1A7000220B4B1A70FFF7DEFFFD
:402840000A4AD179937943EA0123054A128892B29A4201D9024A1380FFF7FAFD012008BD7C84FF1FFA84FF1F7084FF1F0060004008B504220B4B1A7080220B4B1A70FFF721
:40288000BDFF0A4AD179937943EA0123084A128892B29A4201D9064A13800B22054B1A70012008BDFA84FF1F7084FF1F006000407C84FF1F6A84FF1F0A4A137803F0FE0360
:4028C0001370094B9B7C094B1B7B03F00303012B04D0064AD37B83F08003D3730122034B5A7370470B600040FC5F00408C84FF1F0B4A137803F0FD0313700A4B93F822303C
:40290000094B1B7E03F00303012B04D0064AD37E83F08003D3760122034B5A76704700BF0B600040FC5F00408C84FF1F0D4A137803F0FB0313700C4B93F832300B4B93F82B
:40294000243003F00303012B06D0084A92F8273083F0800382F827300122044B83F82520704700BF0B600040FC5F00408C84FF1F704700BF08B5FFF793FB08BD08B500F0C9
:402980009BFC08BD70B588B0054603AC174E0FCE0FC43368237035B322232B7003236B7001A8FFF7A3F9002402231AE008AA224412F81C2C08A901EB121111F8141CE9543A
:4029C000581C00212954981C02F00F0208AE324412F8142C2A54DA1CA9540134E4B20433DBB2212BE2D908B070BD00BFC865000010B401223DE0114613010C242148C454A0
:402A000002EB42039B00204803445B7913F0FF0F12D002EB42039B0003441B7913F0800F04D01001194B03449C700AE01001174B03440820987004E01001144B034480206E
:402A400098704B000B449B000F480344DC88E4B208010C4901448C71D888C0F30720C871D888C0B20871DB88C3F307234B710132D2B2082ABFD9FF22054B1A705DF8044B04
:402A8000704700BF706000408C84FF1FFC5F00400A600040074B1B78074A02EBC30253681A7C824203D903EBC003586970470020704700BFFB84FF1FDC650000F8B5404B6F
:402AC0001B7813F0FF0F79D03D4B18780138C0B2FFF7E0FF047AC2683A4B1878C0B200236AE01178814264D13749095CC9B25578A9425ED1917801F07F01D67806F0030626
:402B0000DFF8C8E04D000D44AD000EEB05074FF0000C87F803C092F802C087F804C092F803C00EF805C095883D8192F90250002D0DDA012E01D1072700E00D274D000D44E5
:402B4000AD00224E35446F7101266E700CE0012E01D1052700E009274D000D44AD001B4E35446F7100266E70DFF868E00F010EEB07060125B57001FA05F529448900134DD5
:402B800029440D89C5F307250EF807500D89EDB27570CE88F6B20E4D3D44AE71CE88C6F30726EE71CE88F6B22E71C988C1F30721697108320133DBB2A34292D3F8BD00BFC6
:402BC0006D84FF1F6E84FF1F7884FF1F8C84FF1F70600040FC5F0040034B1A78034B03EBC2035868704700BFFB84FF1FDC65000008B5074B18780138C0B2FFF74BFF28B16B
:402C00004268127900EBC203586908BD002008BD6D84FF1F2DE9F84300220EE06F4E53009D18AD00741900217155A170E1702181A172617061710132D2B2082AEED940B98B
:402C40000AE000226649CA546649CA540133DBB200E00023012BF4D9634B1B7813F0FF0F00F0B980604B18780138C0B2FFF712FF80464368DB7913F0400F05D05B4A13786D
:402C800043F00103137004E0584A137803F0FE03137098F808704FF0000901266CE0D8F80C50002464E0AB7803F07F039E425CD1314606EB46039B00484803441B899BB2C2
:402CC000A888834205D206EB46039B00434A134418812B784248C35CDBB26878834244D195F802C03D484B000B449B0000EB030E8EF804C095F803E000F803E0EB7803F033
:402D0000030395F90200002811DA012B02D14FF0070C01E04FF00D0CDFF8C0E04B0058188000704480F805C00123437012E0012B02D14FF0050C01E04FF0090C27484FEAC8
:402D4000410E0EEB01039B00034483F805C0194600234B70AB790A2B01D0022B05D1284631464A46FFF74CFB814608350134E4B2BC4298D30136F6B2082E90D9D8F80C0037
:402D800000220CE0837803F07F0310F8084B03EB43039B0016490B449C700132D2B2BA42F0D3FFF725FF134B1860002301210EE00A4C4A00501880002044C3800289134407
:402DC0009BB203F0010213449BB20131C9B20829EED9FFF70DFEBDE8F88300BF8C84FF1F7884FF1F6884FF1F6D84FF1F6F84FF1F9484FF1F7484FF1F08B5154B1A7902F007
:402E00007F02531EDBB2072B20D8530013449B0010490B44997841F0010199700021D970597841F0020159701B7913F0800F05D01201094B13448D229A7004E01201064BBD
:402E4000134489229A70FFF7ABFB08BD002008BD006000408C84FF1FFC5F0040264B1B7903F07F035A1ED2B2072A43D810B55A001A44920021490A44917801F0FE01917014
:402E80000021D17019017F241D484454517801F0FD015170127912F0800F14D003EB4302920016490A445278D2B2012A05D11B0102461A440C23937019E01B01104A1A44FB
:402EC0000D23937013E003EB430292000B490A445278D2B2012A05D11B01094A1A440823937004E01B01064A1A4409239370FFF757FB10BD00207047006000408C84FF1F64
:402F0000FC5F004010B50E4B1C79E4B20D4B18780138C0B2FFF7BEFD43681B799C4201D9022C0AD8084A135DDBB208490B55044B9B78DBB21355012010BD002010BD00BF71
:402F4000006000406D84FF1F7884FF1F6884FF1F10B59B4B1B78DBB200219A4A118013F0800F00F0AD80964A5278D2B20A2A00F27281DFE812F06900700170017001700131
:402F800070010B007001920070019A008C4BDB78DBB2012B09D1FFF71FFE4268894B5A6012221A80FFF73CFC10BD854BDB78DBB2022B13D1824B9878FFF76CFD002800F0A1
:402FC0004C8142687F4B5A605A68D1785A68927842EA01221A80FFF723FC10BD784BDB78DBB2032B05D02CE00A7811440133DBB201E000237449724A9278D2B29A4203D927
:403000000A7812F0FF0FEFD16D4B9B7813F0FF0F0BD06B4B9B78DBB26C4A127C934204D16B4C2046FFF7AEFC21460B7813F0FF0F00F015810B78634A13805160FFF7F0FBB0
:4030400010BD00F0D3F910BD13F0030317D0022B40F007815B490B80594B1B7903F07F0303EB43039B005B4A13449A78D2B25A4B1A7000225A704B60FFF7D2FB10BD5149F8
:4030800002230B80554B1A78D2B2534B1A7000225A704B60FFF7C4FB10BD4A4B01221A804F4A5A60FFF7BCFB10BD464A01231380434B1B794B490B445360FFF7B1FB10BDDC
:4030C0003F4A5278013A0A2A00F2CD80DFE812F04B00CB009600CB000B00CB00CB00CB001300CB003000364B9B78DBB23E4A1370FFF756FA10BD324B9B7803F0FF041BB184
:40310000601EC0B2FFF7C6FC04B110B9002C40F0AC80334B1B78DBB29C4206D0304B1C700120324B1870FFF775FDFFF739FA10BDFFF7E8FE002800F09A80214A1379DBB272
:403140001279D2B22A490A702A4AD25C2549C95CD3B28B4204D00122244B1A70FFF7AEFCFFF71EFA10BD03F00303012B17D04BB1022B7ED1124B9B7813F0FF0F7BD1FFF71A
:403180006DFE10BD0E4B9B78DBB2012B75D1134A137803F0FD031370FFF702FA10BD084B1B79DBB2012B6AD8054B98781B79DBB21149CA5C22EA0002CA54FFF7F1F910BD93
:4031C000006000407C84FF1F44660000286700000085FF1F8C84FF1F2882FF1F6F84FF1F6D84FF1F7884FF1FFE84FF1F6C84FF1F6E84FF1F6884FF1FFC84FF1F03F00303A6
:40320000012B17D04BB1022B3BD1224B9B7813F0FF0F38D1FFF7F0FD10BD1E4B9B78DBB2012B32D11C4A137843F002031370FFF7B7F910BD174B1B79DBB2012B27D8154B97
:4032400098781B79DBB21549CA5C22EA0002CA54FFF7A6F910BD002010BD002010BD002010BD002010BD002010BD002010BD002010BD002010BD002010BD002010BD0020A9
:4032800010BD002010BD002010BD002010BD002010BD00BF006000406F84FF1FFC84FF1F044B1B7813F0800F01D0024B5B780020704700BF00600040024B1878C0F38010C4
:4032C000704700BF8F450040014B1B689865704708ED00E04001C0B2014B1870704700BF06E400E04022014B1A60704700E100E04022014B1A60704780E100E010B5044656
:40330000FFF7F6FF2046FFF7DFFF0720FFF7E2FFFFF7E8FF10BD00BF7222034B1A702022013B1A70704700BF8A64004010B5FEF787FC0446074A137843F020031370013A72
:40334000137843F01003137000F01AF82046FEF77BFC10BD9A64004008B5054B1B7823B9FFF7DAFF0122024B1A70FFF7DFFF08BD2C82FF1F014B1878704700BF4A64004030
:40338000054A137843F0010313701032137843F001031370704700BFA2430040014B1B68D864704708ED00E04001C0B2014B1870704700BF03E400E00822014B1A60704755
:4033C00000E100E00822014B1A60704780E100E010B50446FFF7F6FF2046FFF7DFFF0720FFF7E2FFFFF7E8FF10BD00BF08B5124B1B7803F00303012B02D0022B04D00FE0F5
:403400000D4B1B79DBB20CE00B4B1B7903F07F0303EB43039B00094A13449B78DBB200E00023074A1268D35C022B02D1FEF7F6FE08BD002008BD00BF006000409484FF1F8A
:403440007484FF1F2DE9F0478AB006460F4600F04FF8DFF898A004469AF900300D4601330FD03046394600F009F950B14FF000084FF000093046394642464B4600F056FD8D
:4034800020B9204629460AB0BDE8F08716499AF8004001220023CDE90467CDE9026701910092089364B9CDE90689684600F012F980B1089B9BB9DDE906010AB0BDE8F0873C
:4034C0004046494642464B4600F0E8FB022CCDE90601EAD100F074FF21230360E9E700F06FFF089B0360E6E73C6700004081FF1F2DE9F041604E0C46B6460E407645054601
:403500000B4600F098800029024676DD5FEA215E00F08180AEF2FF3EC3F313031EF0010F43F480135ED100273C46D10F01EB43034FEA6E0E520016204FF4001165189D424D
:403540004FEAD2764FEA420202DC5B1B6C180F44013806EB43034FEA5101EFD1844620264FF000410AE0A34220D0D50F013E4FEA510105EB43034FEA420220D09C420CEBF2
:403580000105F0DA002D05EB010C09DBA0461B1B954288BF03F1FF334446521B0844E4E7BCF1000FF2DB04F10108F0E7954217D8002D05EB010C48DB98460023ECE7134324
:4035C00015D140087B1003F17F5303F50013FA0703EB0E57394648BF40F00040BDE8F0811C46C2E7D10F01EB430352009BE7411C31D000F001031844E3E721F000460643D8
:40360000ECD079BB8E46D30AAEF1150E5205002BF9D0DC0222D400215B00D80201F10101FAD5C1F10100C1F1200422FA04F4234386448A406EE702460B4600F005FA2A460B
:40364000234600F04FF8BDE8F081BCF1000FAADAA0460023A0E701373046B3E7202401200021E2E702460B4600F03AF802460B4600F014FBB2E700BF0000F07F10B431F02E
:40368000004408D0114BA1F580129A4208D804205DF8044B704718B902205DF8044B704701F1FF41094B01F5E0019942EFD9B4F5801F01D20320EBE7054B9C4201D00020B2
:4036C000E6E7B0FA80F04009E2E700BFFFFFDF7F0000F07F0020704781F0004102E000BF83F0004330B54FEA41044FEA430594EA050F08BF90EA020F1FBF54EA000C55EA38
:40370000020C7FEA645C7FEA655C00F0E2804FEA5454D4EB5555B8BF6D420CDD2C4480EA020281EA030382EA000083EA010180EA020281EA0303362D88BF30BD11F0004F8D
:403740004FEA01314FF4801C4CEA113102D0404261EB410113F0004F4FEA03334CEA133302D0524263EB430394EA050F00F0A780A4F10104D5F1200E0DDB02FA0EFC22FA2D
:4037800005F2801841F1000103FA0EF2801843FA05F359410EE0A5F120050EF1200E012A03FA0EFC28BF4CF0020C43FA05F3C01851EBE37101F0004507D54FF0000EDCF1E1
:4037C000000C7EEB00006EEB0101B1F5801F1BD3B1F5001F0CD349085FEA30004FEA3C0C04F101044FEA445212F5800F80F09A80BCF1004F08BF5FEA500C50F1000041EB19
:40380000045141EA050130BD5FEA4C0C404141EB010111F4801FA4F10104E9D191F0000F04BF01460020B1FA81F308BF2033A3F10B03B3F120020CDA0C3208DD02F1140C56
:40384000C2F10C0201FA0CF021FA02F10CE002F11402D8BFC2F1200C01FA02F120FA0CFCDCBF41EA0C019040E41AA2BF01EB0451294330BD6FEA04041F3C1CDA0C340EDC8F
:4038800004F11404C4F1200220FA04F001FA02F340EA030021FA04F345EA030130BDC4F10C04C4F1200220FA02F001FA04F340EA0300294630BD21FA04F0294630BD94F0B5
:4038C000000F83F4801306BF81F480110134013D4EE77FEA645C18BF7FEA655C29D094EA050F08BF90EA020F05D054EA000C04BF1946104630BD91EA030F1EBF0021002006
:4039000030BD5FEA545C05D14000494128BF41F0004130BD14F580043CBF01F5801130BD01F0004545F0FE4141F470014FF0000030BD7FEA645C1ABF194610467FEA655C62
:403940001CBF0B46024650EA013406BF52EA033591EA030F41F4002130BD00BF90F0000F04BF0021704730B54FF4806404F132044FF000054FF0000150E700BF90F0000F32
:4039800004BF0021704730B54FF4806404F1320410F0004548BF40424FF000013EE700BF42004FEAE2014FEA31014FEA02701FBF12F07F4393F07F4F81F06051704792F081
:4039C000000F14BF93F07F4F704730B54FF4607401F0004521F0004120E700BF50EA010208BF704730B54FF000050AE050EA010208BF704730B511F0004502D5404261EB3A
:403A000041014FF4806404F132045FEA915C3FF4DCAE4FF003025FEADC0C18BF03325FEADC0C18BF033202EBDC02C2F1200300FA03FC20FA02F001FA03FE40EA0E0021FA4C
:403A400002F11444C1E600BF70B54FF0FF0C4CF4E06C1CEA11541DBF1CEA135594EA0C0F95EA0C0F00F0DEF82C4481EA030621EA4C5123EA4C5350EA013518BF52EA0335F9
:403A800041F4801143F4801338D0A0FB02CE4FF00005E1FB02E506F00042E0FB03E54FF00006E1FB03569CF0000F18BF4EF0010EA4F1FF04B6F5007F64F5407404D25FEADA
:403AC0004E0E6D4146EB060642EAC62141EA55514FEAC52040EA5E504FEACE2EB4F1FD0C88BFBCF5E06F1ED8BEF1004F08BF5FEA500E50F1000041EB045170BD06F00046EE
:403B000046EA010140EA020081EA0301B4EB5C04C2BFD4EB0C0541EA045170BD41F480114FF0000E013C00F3AB8014F1360FDEBF002001F0004170BDC4F10004203C35DAC3
:403B40000C341BDC04F11404C4F1200500FA05F320FA04F001FA05F240EA020001F0004221F0004110EBD37021FA04F642EB06015EEA430E08BF20EAD37070BDC4F10C045E
:403B8000C4F1200500FA04F320FA05F001FA04F240EA020001F0004110EBD37041F100015EEA430E08BF20EAD37070BDC4F1200500FA05F24EEA020E20FA04F301FA05F27B
:403BC00043EA020321FA04F001F0004121FA04F220EA020000EBD3705EEA430E08BF20EAD37070BD94F0000F0FD101F00046400041EB010111F4801F08BF013CF7D041EA7B
:403C0000060195F0000F18BF704703F00046520043EB030313F4801F08BF013DF7D043EA0603704794EA0C0F0CEA135518BF95EA0C0F0CD050EA410618BF52EA4306D1D17A
:403C400081EA030101F000414FF0000070BD50EA410606BF1046194652EA430619D094EA0C0F02D150EA013613D195EA0C0F05D152EA03361CBF104619460AD181EA03014E
:403C800001F0004141F0FE4141F470014FF0000070BD41F0FE4141F4780170BD70B54FF0FF0C4CF4E06C1CEA11541DBF1CEA135594EA0C0F95EA0C0F00F0A7F8A4EB0504FB
:403CC00081EA030E52EA03354FEA013100F088804FEA03334FF0805545EA131343EA12634FEA022245EA111545EA10654FEA00260EF000419D4208BF964244F1FD0404F556
:403D0000407402D25B084FEA3202B61A65EB03055B084FEA32024FF480104FF4002CB6EB020E75EB030E22BFB61A754640EA0C005B084FEA3202B6EB020E75EB030E22BF5A
:403D4000B61A754640EA5C005B084FEA3202B6EB020E75EB030E22BFB61A754640EA9C005B084FEA3202B6EB020E75EB030E22BFB61A754640EADC0055EA060E18D04FEA36
:403D8000051545EA16754FEA06164FEAC30343EA52734FEAC2025FEA1C1CC0D111F4801F0BD141EA00014FF000004FF0004CB6E711F4801F04BF01430020B4F1FD0C88BF07
:403DC000BCF5E06F3FF6AFAEB5EB030C04BFB6EB020C5FEA500C50F1000041EB045170BD0EF0004E4EEA113114EB5C04C2BFD4EB0C0541EA045170BD41F480114FF0000E46
:403E0000013C90E645EA060E8DE60CEA135594EA0C0F08BF95EA0C0F3FF43BAF94EA0C0F0AD150EA01347FF434AF95EA0C0F7FF425AF104619462CE795EA0C0F06D152EA15
:403E400003353FF4FDAE1046194622E750EA410618BF52EA43067FF4C5AE50EA41047FF40DAF52EA43057FF4EBAE12E74FF0FF3C06E000BF4FF0010C02E000BF4FF0010C1C
:403E80004DF804CD4FEA410C7FEA6C5C4FEA430C18BF7FEA6C5C1BD001B050EA410C0CBF52EA430C91EA030F02BF90EA020F0020704710F1000F91EA030F58BF994208BF26
:403EC00090422CBFD8176FEAE37040F0010070474FEA410C7FEA6C5C02D150EA013C07D14FEA430C7FEA6C5CD6D152EA033CD3D05DF8040B704700BF8446104662468C46B7
:403F00001946634600E000BF01B5FFF7B7FF002848BF10F1000F01BD4DF808EDFFF7F4FF0CBF012000205DF808FB00BF4DF808EDFFF7EAFF34BF012000205DF808FB00BFD1
:403F40004DF808EDFFF7E0FF94BF012000205DF808FB00BF4DF808EDFFF7CEFF94BF012000205DF808FB00BF4DF808EDFFF7C4FF34BF012000205DF808FB00BF4FEA410225
:403F800012F5001215D211D56FF47873B3EB625212D94FEAC12343F0004343EA505311F0004F23FA02F018BF404270474FF00000704750EA013005D111F0004008BF6FF020
:403FC000004070474FF00000704700BF4FEA4102B2F1E04324BFB3F5001CDCF1FE5C0DD901F0004C4FEAC0024CEA5070B2F1004F40EB830008BF20F00100704711F0804FF2
:4040000021D113F13872BCBF01F00040704741F480114FEA5252C2F11802C2F1200C10FA0CF320FA02F018BF40F001004FEAC1234FEAD32303FA0CFC40EA0C0023FA02F378
:404040004FEA4303CCE77FEA625307D150EA01331EBF4FF0FE4040F44000704701F0004040F0FE4040F40000704700BF80F0004002E000BF81F0004142001FBF5FEA41032C
:4040800092EA030F7FEA226C7FEA236C6AD04FEA1262D2EB1363C1BFD218414048404140B8BF5B42192B88BF704710F0004F40F4000020F07F4018BF404211F0004F41F4EF
:4040C000000121F07F4118BF494292EA030F3FD0A2F1010241FA03FC10EB0C00C3F1200301FA03F100F0004302D5494260EB4000B0F5000F13D3B0F1807F06D340084FEA9E
:40410000310102F10102FE2A51D2B1F1004F40EBC25008BF20F0010040EA03007047490040EB000010F4000FA2F10102EDD1B0FA80FCACF1080CB2EB0C0200FA0CF0AABF66
:4041400000EBC25052421843BCBFD0401843704792F0000F81F4000106BF80F400000132013BB5E74FEA41037FEA226C18BF7FEA236C21D092EA030F04D092F0000F08BF7D
:404180000846704790EA010F1CBF0020704712F07F4F04D1400028BF40F00040704712F100723CBF00F50000704700F0004343F0FE4040F4000070477FEA226216BF084610
:4041C0007FEA23630146420206BF5FEA412390EA010F40F4800070474FF0000304E000BF10F0004348BF40425FEA000C08BF704743F0964301464FF000001CE050EA01028F
:4042000008BF70474FF000030AE000BF50EA010208BF704711F0004302D5404261EB41015FEA010C02BF84460146002043F0B64308BFA3F18053A3F50003BCFA8CF2083A7C
:40424000A3EBC25310DB01FA02FC634400FA02FCC2F12002BCF1004F20FA02F243EB020008BF20F00100704702F1200201FA02FCC2F1200250EA4C0021FA02F243EB0200D2
:4042800008BF20EADC7070474FF0FF3C06E000BF4FF0010C02E000BF4FF0010C4DF804CD4FEA40024FEA41037FEA226C18BF7FEA236C11D001B052EA530C18BF90EA010F70
:4042C00058BFB2EB030088BFC81738BF6FEAE17018BF40F0010070477FEA226C02D15FEA402C05D17FEA236CE4D15FEA412CE1D05DF8040B704700BF844608466146FFE799
:404300000FB5FFF7C9FF002848BF10F1000F0FBD4DF808EDFFF7F4FF0CBF012000205DF808FB00BF4DF808EDFFF7EAFF34BF012000205DF808FB00BF4DF808EDFFF7E0FF37
:4043400094BF012000205DF808FB00BF4DF808EDFFF7D2FF94BF012000205DF808FB00BF4DF808EDFFF7C8FF34BF012000205DF808FB00BF4FEA4002B2F1FE4F0FD34FF018
:404380009E03B3EB12620DD94FEA002343F0004310F0004F23FA02F018BF404270474FF00000704712F1610F01D1420205D110F0004008BF6FF0004070474FF0000070477C
:4043C000014B1868704700BFA481FF1F0E4B70B51E460E4C0025E41AA410A54204D056F8253098470135F8E702F05AFA084B094C1E46E41AA4100025A54204D056F825304C
:4044000098470135F8E770BDAC680000AC680000AC680000B468000010B5431E0A44914204D011F8014B03F8014FF8E710BD03460244934202D003F8011BFAE770472DE9A1
:40444000F0471E4688B0149F002BB8BF06F10043129927F02007B6BF1E4600232D23462F1446109DDDF84CA00B7003D0452F03D1013501E0032300E002238DE8280406AB3E
:40448000039307AB04932246334600F0F9FC472F804602D1119BDB0726D5462F08EB050911D198F80030302B0AD12046314600220023FFF731FD18B9C5F10105CAF800508C
:4044C000DAF8003099442046314600220023FFF723FD08B1CDF81C90079B4B4504D25A1C079230221A70F7E74046079B159AC8EB0303136008B0BDE8F087034673B5002939
:40450000B8BF494203F8022BB4BF2D222B22092942701ADD0DF1070426460A2291FBF2F502FB1511092D01F1300104F8011D2946F3DC3031651E04F8011CB5421A460AD24F
:4045400015F8012B03F8012BF7E71A463024214402F8024B5970101A02B070BD2DE9F04F91B08B4615461E461A9F044601F044FAD0F800A0504600F0F1FB00230E933B6832
:404580000990073323F0070303F108029BF818803A60D3E90023CBE91223DBE91201FFF76DF80128DBE9120119D100220023FFF7BDFC10B12D238BF84330A04BA04FB8F1E6
:4045C000470F88BF1F460323CBF81030DBF8003023F00403CBF800304FF00009A1E0FFF74DF8DBF8003048B9964A974FB8F1470F88BF17460322CBF81020E9E7DBF8042030
:40460000DBE91201571CCDE90A0101D1062209E0B8F1670F02D0B8F1470F05D1002A40F0C7810122CBF80420DBF8042043F480638DE80C00CBF800300DF1330302930DAB14
:4046400003930EAB059300230693CDF81080DDE90A232046FFF7F3FE08F0DF03472B07460AD10D9BD81C03DBDBF80420934237DDA8F102085FFA88F8B8F1650F0D9915D808
:40468000013942460BF150000D91FFF736FF0E9A81468318012ACBF8103003DCDBF80020D10738D50133CBF8103034E0B8F1660F18D10029DBF8043009DDCBF810101BB915
:4046C000DBF80020D20721D501330B441CE01BB9DBF80020D00701D5023315E0012313E04FF067080D9B0E9A934207DBDBF80020CBF81030D10709D5013305E0002BD4BF8C
:40470000C3F1020301231344CBF810300D9B4FF00009CBF858309DF8333013B12D238BF843300096204659460FAA2B4600F05CF9013002D14FF0FF3052E1DBF800305A05F4
:4047400005D4204629463A46DBF8103008E1B8F1650F40F2D080DBE9120100220023FFF7DBFB50B320462946384A0123B0470130E0D00E9B0D9A9A4209DBDBF80030D80740
:4047800005D4DBF800309F0700F1108107E1204629465246099BB0470130CBD000270E9B013B9F42EDDA204629460BF11A020123B0470130BED00137F1E70D9B002B29DCD6
:4047C00020462946214A0123B0470130B2D00D9B2BB90E9B1BB9DBF80030D907D1D5204629465246099BB0470130A3D04FF000080D9B20465B429845294608DA0BF11A0235
:404800000123B047013095D008F10108F0E73A460E9BA5E0DBF858200E9B9A42A8BF1A46002A914602DC4FF000081CE0204629463A464B46B0470130F5D17BE74A670000A0
:4048400046670000526700004E67000056670000204629460BF11A020123B04701303FF469AF08F10108DBF85830B9F1000FB4BF1A46C9EB03029045EADB07EB03080D9AFC
:404880000E9B9A4210DBDBF80030DA070CD40E9A1744C8EB07030D9FD21B9342A8BF1346002B1F4608DC0EE0204629465246099BB0470130EBD13DE7204629464246B04707
:4048C00001303FF437AF4FF000080AE0204629460BF11A020123B04701303FF42BAF08F101080D9A0E9B002FA3EB0203A8BFDB1B9845EBDB45E70E9A012A01DCDB0736D51A
:40490000204629463A460123B04701303FF412AF204629465246099BB04701303FF40AAFDBE9120100220023FFF7F6FAE8B90E9B204629467A1C013B1DE0204629460BF1FC
:404940001A020123B04701303FF4F4AE01370E9B013B9F42F1DB204629464B460BF15002B04701307FF40DAFE4E60027EFE7204629463A460123B0470130ECD1DAE62046DA
:4049800029460BF119020123B04701303FF4D2AE0137DBF80C300F9A9B1A9F42EFDBDBF80C000F9B9842B8BF184619E00027F0E743F480638DE80C00CBF800300DF1330331
:4049C00002930DAB03930EAB059300230693CDF810802046DDE90A23FFF731FD074640E611B0BDE8F08F00BF2DE9F84391461F468A680B6906469342B8BF1346C9F8003009
:404A000091F843200C46DDF8208012B10133C9F800302368990642BFD9F800300233C9F80030256815F006051CD094F843302268003318BF012392061FD5E118302081F8FB
:404A400043005A1C94F845102244023382F8431013E03046394604F119020123C047013007D00135E368D9F800209B1A9D42F0DBDBE74FF0FF30BDE8F8833046394604F1FE
:404A80004302C0470130F4D02268D9F80050E36802F00602042A08BF5D1B2269A3680CBF25EAE57500259342C4BF9B1AED184FF00009A9450ADA3046394604F11A02012313
:404AC000C0470130D5D009F10109F2E70020BDE8F88300002DE9FF410C461746227E98466E2A06460A9B01F1430100F0B08012D8632A23D00AD8002A00F0BD80582A40F005
:404B0000CC8084F84520DFF804E257E0642A1ED0692A1CD0C1E0732A00F0B18009D86F2A2ED0702A40F0B980226842F0200222603FE0752A24D0782A3BD0AEE01A6804F1BB
:404B40004205111D1960136884F84230A9E020681A6810F0800F02D0101D186008E010F0400F02F10400186002D0B2F9003000E01368002B3EDA2D225B4284F8432039E070
:404B800020681A6810F0800F02D0101D186007E010F0400F02F10400186001D0138800E01368227EDFF864E16F2A0CBF08220A221CE07822DFF858E184F845202268186872
:404BC00012F0800F00F104051D6003D1550601D5038800E00368D00744BF42F0200222601BB9226822F0200222601022002084F8430002E0DFF814E10A226568002DA8BFC2
:404C00002068A560A4BF20F00400206003B965B10D46B3FBF2F002FB10331EF8033005F8013D03460028F4D100E00D46082A0BD12368DA0708D5236962689A42DEBF302395
:404C400005F8013C05F1FF35491B21612EE025681A6815F0800F606903D0151D1D60136808E015F0400F02F104051D60136801D0188000E01860002323610D4616E01A6810
:404C8000111D1960156800212846626800F0C0FE08B1401B6060636804E004F1420584F8422001232361002384F84330CDF800803046214603AA3B46FFF796FE013002D194
:404CC0004FF0FF301FE0304639462A462369C0470130F5D023689B0705D4E068039B9842B8BF18460FE00025E368039A9B1A9D42F3DA3046394604F119020123C047013000
:404D0000DED00135F0E704B0BDE8F08158670000696700000EB400B54FF402719CB0ADF814106FF00041049107914FF6FF711DABADF81610084953F8042B029006900868A5
:404D400002A9019301F052FA029B00221A701CB05DF804EB03B07047A481FF1F034613F8012B002AFBD1181A013870472DE9F74F03690C698046A3427EDB013C01F114078E
:404D80004FEA840E00F1140606EB0E0357F82450019356F824300135B3FBF5F507EB0E09BDB34FF0000A3846B446D34650F8043B9AB21B0C02FB05A26B4303EB124392B22E
:404DC000C2EB0B0BBCF800204FEA134A5A441FFA83FBDCF800304845CBEB134303EB224392B242EA03424FEA234B4CF8042BDDD956F80E306BB9019B043BB3421A4602D822
:404E0000C8F8104005E01268043B002AF8D1013CF3E7404601F01BF800282BDB304601354FF0000E57F8042B036891B2C1EB0E0E120C99B27144C2EB134303EB214389B267
:404E40004FEA234E4F4541EA034340F8043BE9D956F8242006EB840362B9043BB3421A4602D8C8F8104005E01268043B002AF8D1013CF3E7284600E0002003B0BDE8F08FBA
:404E80002DE9F04F456A95B08246219CCDE9022345B9102000F0B4FDCAF82400456085600560C560DAF82430196859B15A68012393404A608B60504600F0EDFDDAF82430EB
:404EC00000221A60039BA24A002BBDBF01232360039B0023BCBF23F000430393039FA8BF236027F000431B0D1B0593421DD142F20F73209A1360029B43B9964A964BC7F32E
:404F00001300002814BF1846104600E09248229B002B00F06985C37813B100F1080300E0C31C229A136000F05FBDDDE902450022204629460023FEF7EFFF804658B1209AA7
:404F400001231360229B002B00F03C8583481860013800F049BD13AB009312AB0193504622462B4600F0EEFFC7F30A5607905EB1C5F3130343F07F51204641F44011A6F28C
:404F8000FF36CDF844801DE0139B129E1E446FF482639E42A1BF029A06F2124322FA03F06F4BB7BF6F4B9B1B029A9B1BAABF9F4002FA03F03843FEF7D1FC0123A1F1F87171
:404FC000013E11930022684BFEF78AFB5AA3D3E90023FEF739FD5AA3D3E90023FEF782FB044630460D46FEF7C9FC57A3D3E90023FEF72AFD02460B4620462946FEF772FB98
:4050000004460D46FEF7BAFF29468346002220460023FEF78BFF58B15846FEF7AFFC02460B4620462946FEF777FF08B90BF1FF3BBBF1160F0DD84D4B03EBCB03D3E90001E5
:40504000DDE90223FEF790FF30B10BF1FF3B002300E00123109300E01090129B9E1B731E0A9345BF5B420993002300234CBF0A930993BBF1000F07DB0A9BCDF834B05B447B
:405080000A9300230B9308E0099BCBEB03030993CBF100030B9300230D931E9B092B29D8052BC4BF043B1E931E9BC8BF0025A3F10203D8BF0125032B21D8DFE803F0020E51
:4050C0000410002300E001230C931F9B002B20DC0123069305931A4619E0002300E001230C931F9B5B4406930133012B0593B8BF012311E0012500231E930C9501E001236B
:405100000C934FF0FF3306930593002212231F9202E01F9B06930593DAF8244000226260042101F114029A4222D86268490001326260F6E7AFF3008061436F63A787D23F80
:40514000B3C8608B288AC63FFB799F501344D33F0000F07F7A67000083670000576700000EFCFFFFEEFBFFFF0000F83F906700005046616800F05AFCDAF8243020601B6863
:405180000893059B0E2B00F24781002D00F04481DDE90223BBF1000FCDE90E2331DDB14A0BF00F034FEA2B1602EBC303F006D3E900450CD5DDE90E01AB4B06F00F06D3E9A5
:4051C0000823FEF76BFD0327CDE9020100E00227DFF8948276B1F10708D5D8E9002320462946FEF731FC04460D460137761008F10808EFE7DDE9020122462B46FEF74EFD5B
:405200001BE0CBF10004DCB1DDE90E01954B04F00F0203EBC203D3E90023FEF715FC924D241102274CB1E20704D5D5E900230137FEF70AFC64100835F4E7CDE9020100E09F
:405240000227109BDBB1DDE90245002220462946864BFEF76BFE90B1059B83B1069B002B40F3D680294620460022814BFEF7ECFB0BF1FF36CDE902010137069D01E05E4648
:40528000059D3846DDE90289FEF778FB42464B46FEF7DAFB774B0022FEF724FACDE90201039BA3F150740394CDB9404649460022714BFEF715FA029A234680468946FEF7E9
:4052C00053FE002840F0408240464946029A04F10043FEF72BFE002840F0308298E0614B0C996A1E03EBC203002947D0D3E9002300206249FEF7D2FCDDE90223FEF7F0F9B8
:40530000CDE90201089C49464046FEF737FE0746FEF734FB02460B4640464946FEF7E0F9DDE90223303704F8017B80468946FEF7FDFD002840F0378342464B4600204B49B7
:40534000FEF7CEF9DDE90223FEF7F0FD002840F0D080089BE31AAB425ADADDE902010022434BFEF771FB0022CDE90201404B40464946FEF769FB80468946C4E7D3E9000190
:40538000DDE90223FEF760FB089BCDE902015C191D4649464046FEF7F1FD0746FEF7EEFA02460B4640464946FEF79AF9303705F8017BA5428046894623D100222F4BDDE974
:4053C0000201FEF78FF902460B4640464946FEF7CBFD002840F08D80DDE9022300202749FEF77EF902460B4640464946FEF79EFD70B114F8013C621E302B40F0D482144613
:40540000F7E700221A4BFEF71FFB80468946C0E7DDE90E23CDE90223139B002BC0F28A80BBF10E0F00F386800E4B03EBCB03D3E900671F9B002B23DA059B002B20DC40F082
:405440007C81304600220C4B3946FEF7FDFADDE90223FEF77FFD059D2E46002840F06F8174E100BF90670000586800000000F03F0000244000001C40000014400000E03FEE
:40548000089CDDE9028932463B4640464946FEF705FCFEF773FD0546FEF770FA32463B46FEF7D2FA0B46024649464046FEF718F905F1300E089B04F801EBC3EB040E059B57
:4054C0009E452AD102460B46FEF70CF932463B4680468946FEF748FD70B94046494632463B46FEF719FD002800F05E82EB0703D45AE2B34600E01C4614F8012C631E392ADC
:4055000007D1089A9342F6D13023137013460BF1010B1A7801321A7046E20022A34BFEF793FA0022002380468946FEF7F5FC0028A9D039E20C9A002A32D01E9A012A0ADCFE
:40554000119A12B103F2334302E0129BC3F136030B9D099C18E0059B5D1E0B9BAB42B7BF0B9B5D1BEA1A0D9BBEBF0B959B180D93059BB8BF0025002BB9BF099B059A099C6C
:40558000059BBCBF9C1A0023099A50461A4409920A9A01211A440A9200F01FFB064602E00B9D099C0C9E64B10A9B002B09DDA342A8BF2346099AE41AD21A09920A9AD31A9D
:4055C0000A930B9B002B20DD0C9BC3B1002D10DD31462A46504600F099FB0646079A3146504600F003FB07460799504600F053FA07970B9B5A1B08D05046079902E0504623
:4056000007990B9A00F082FB07905046012100F0E4FA0D9B0546002B0ADD29461A46504600F074FB1E9B0546012B04DD00271BE01E9B012B13DC029B8BB9039BC3F3130380
:405640007BB9039B23F000473F0D3F0557B1099B0127013309930A9B01330A9302E0002700E0029F0D9B43B12B6905EB8303186900F066FAC0F1200000E001200A9B184480
:4056800010F01F0008D0C0F12003042B02DDC0F11C0002E008D018461C30099B0444034409930A9B03440A93099B002B05DD504607991A4600F078FB07900A9B002B05DD95
:4056C000294650461A4600F06FFB0546109BEBB10798294600F0BBFB002817DA0023504607990A2200F0EEF90C9B0BF1FF3B0790002B00F06B813146002350460A2200F069
:40570000E1F9069B0646002B33DC68E1059B002B26DC1E9B022B23DD059B0693069B73B929460522504600F0CDF905460798294600F08DFB002809DC01E000252E461F9B72
:40574000089C6FEA030B08E0B3462E46089B089A5C1C312313700BF1010BB14600260FE10C9B23B9059B0693089F079CC9E0059B0693002C05DD31465046224600F014FBB6
:405780000646AFB17168504600F050F90446326906F10C01023292000C30FEF73DFE50462146012200F000FB814602E000002440B146089F079C29462046FFF7D7FA31460E
:4057C000099000F13008204600F041FB4A4605902946504600F057FBC26803463AB919462046079300F033FB079B024600E0012250461946079200F04EF9079A92B91E9BAF
:4058000083B9029B03F0010363B9B8F1390F3B4607943ED0059B7C1C002BC4BF099B03F131083DE0059B002B04DA002AC446079408DC21E024D11E9B13BB029B03F0010320
:40584000F3B9F2E72146012250460597CDF8088000F0AAFA2946079000F0F9FA0028DDF808C0059B03DC07D118F0010F04D0B8F1390F0ED008F1010C7C1C87F800C07FE00A
:40588000002A07F101020EDDB8F1390F3B46079403D1392201371A7057E0144608F1010887F800806CE0089B1746D31A02F8018C069A93423AD021460A220023504600F0CD
:4058C00001F94E450446314650464FF00A024FF0000304D100F0F6F8064681466BE700F0F1F8494606460A225046002300F0EAF8814660E7214650460A22002300F0E2F890
:40590000044620462946FFF731FA089B00F1300807F8018B069AFB1A9342EBDB089BB146012AACBF9B1801331F46002621460122504600F039FA2946079000F088FA0028FB
:4059400003DC15D118F0010F12D03C4614F8013C621E392B09D1089B9A4204D10BF1010B3123089A02E01446F0E70133137007E03C4614F8013C621E302B01D11446F8E72B
:405980005046294600F087F8B9F1000F0CD02EB14E4503D05046314600F07DF85046494600F079F800E0B3465046079900F073F80023209A23700BF101031360229B1BB1CB
:4059C0001C6001E00A480FE008980DE0069B002B3FF7CAAE1E9B022B3FF7A0AEC4E61E9B022B3FF79BAEC4E615B0BDE8F08F00BF56670000AFF3008000487047A881FF1F12
:405A0000024B0146186800F041BB00BFA481FF1F10B5C9B202449042034605D01C7801308C42F8D1184610BD002010BD70B5456A04460E463DB91020FFF7E2FF60624560A4
:405A400085600560C560656AEB6843B1636ADB6853F8260078B1026843F8262017E020460421212200F0C0FA636AE860DB68002BECD1002070BD012101FA06F56A1D20460B
:405A8000920000F0B1FA0028F3D04660856000230361C36070BD70B5446A06460D463CB91020FFF7ADFF7062446084600460C4603DB1736A6A68DB6853F82210296043F830
:405AC000225070BD2DE9F04106460C460F69984601F1140E0023DEF80000013385B2010C02FB0585514301EB1541ADB24FEA1148BB4205EB01414EF8041BECDBB8F1000FE6
:405B00001BD0A3689F4212DB616830460131FFF78DFF0546226904F10C01023292000C30FEF77AFC21463046FFF7B5FF2C4604EB87030137C3F8148027612046BDE8F0816C
:405B4000030C1B0413B90004102300E0002310F07F4F04BF0002083310F0704F04BF0001043310F0404F04BF80000233002803DB420003D5581C704718467047202070470B
:405B8000036813F007020BD0D90722D49A074BBF5B089B08036003604CBF01200220704799B209B91B0C102213F0FF0F04BF1B0A0832190704BF1B090432990704BF9B0865
:405BC0000232D90702D45B0805D00132036010467047002070472020704710B50C460121FFF724FF01224461026110BD2DE9F74F14460A69236988469A42BEBF0B46A046B5
:405C00001C46D8F81070D4F81090D8F80830D8F8041007EB09069E42C8BF0131FFF706FF00F114052B4605EB860C634503D2002243F8042BF9E704F1140208F1140102EBD9
:405C4000890301EB87070093009B01929A4257D2B2F800B0BBF1000F23D08946AE464FF0000859F8044BBEF800A0A3B20BFB03A34FEA144ADEF8004043444FEA14480BFB80
:405C80000A84F24604EB13449BB243EA04434F454FEA14484AF8043B01D9D646E1E7CEF80480019B0432B3F802A0BAF1000F21D02C4689462B684FF00008B9F800E0B4F843
:405CC00002B09BB20AFB0EBEA346F04443EA08434BF8043B59F8043BB4F804E01B0C0AFB03E3B94503EB18434FEA134801D25C46E3E763600435A7E75CF8043D13B9013E47
:405D0000002EF9DC066103B0BDE8F08F12F003032DE9F04106460F46154607D0214A013B52F823200023FFF7CDFE0746AD1035D0746A3CB91020FFF763FE70624460846025
:405D40000460C460D6F82480D8F808407CB9304640F27121FFF741FF0023C8F808000446036004E06D1019D0206870B10446EB07F8D5394622463046FFF738FF8046394609
:405D80003046FFF788FE4746ECE7304621462246FFF72CFF002320600360E7E73846BDE8F08100BF806800002DE9F0470C460746164623694FEA621A0AEB03094968A368D6
:405DC00009F101059D4202DD01315B00FAE73846FFF72CFE804600F114010023534504DA002241F823200133F8E72AEAEA73206901EB830316F01F0204F1140101EB800EAC
:405E000014D0C2F1200C00200E689A469640304343F8040B51F8040B714520FA0CF0F3D3CAF8040048B109F1020506E0043B51F8042B714543F8042FF9D3013D3846C8F8E3
:405E400010502146FFF727FE4046BDE8F08703690A6910B59B1A11D192001430143183180A4453F8044D52F8041D8C4202D007D3012010BD8342F4D8002010BD184610BD47
:405E80004FF0FF3010BD2DE9F84307460C46084611461546FFF7DBFF061E08D138463146FFF7C4FD012303614661BDE8F883BCBF23462C4638466168BABF1D460126002629
:405EC000FFF7B4FD2B69C660266905F1140904F1140101EB860709EB830800F114054FF0000C51F8042B59F8044B93B29C44A3B2240CC3EB0C03C4EB124202EB23429BB227
:405F00004FEA224CC84543EA02428E4645F8042BE7D8BE450ED25EF8043B9AB262441B0C03EB224392B242EA03424FEA234C45F8042BEEE755F8043D0BB9013EFAE70661E2
:405F4000BDE8F8832DE9F3411C4601211546089F099EFFF76BFDC4F31302C4F30A5480460CB142F480120192EDB102A840F8085DFFF706FE009B50B1019AC0F1200102FA89
:405F800001F10B43C240C8F81430019201E0C8F81430019B002B14BF02250125C8F81830C8F8105009E001A8FFF7EAFD019B0125C8F81430C8F81050203034B1A4F233447D
:405FC00004443C60C0F1350009E0A0F2324008EB850338601869FFF7B3FDC0EB45103060404602B0BDE8F08138B502FB01F4214600F04CF8054618B100212246FEF717FAB5
:40600000284638BD30B500293CD051F8042C0B1F1D49002AB8BF9B180A680C4612B95A600B6030BD93420DD219685818904201BF5A5852181A60426823605A6030BD994269
:4060400003D80A4651680029F9D1146815199D420AD11B682344D0188842136012D10868034413604B680CE002D90C23036030BD1C681819884201BF0868496800191860DF
:406080005960536030BD00BF3482FF1F70B5CC1C24F0030408340C2C38BF0C24002C064603DA0C233360002070BD8C42F9D3204A136810461946A1B10A68121B0ED40B2A91
:4060C00003D90A608B188C501FE08B420BBF5A684A6802605A6018BF0B4616E00B464968E9E7144D2B681BB9304600F071F928603046214600F06CF9421C0346D1D0C51C4A
:4061000025F0030585420AD11C6003F10B001A1D20F00700821A0AD05142995070BD3046E91A00F055F90130BBD02B46ECE770BD3482FF1F3082FF1F2DE9F0478E68824625
:40614000B3420C469046994640D38A8912F4906F3AD02568096902236F1A656905EB450595FBF3F57B1C4B449D4238BF1D4653050FD52946FFF78AFF064698B121693A4699
:40618000FEF74AF9A38923F4906343F08003A38113E02A4600F047F9064670B950462169FFF730FF0C23CAF80030A3894FF0FF3043F04003A381BDE8F08726613E4426604A
:4061C0004E466561ED1BA560B14500D24E4632462068414600F00CF9A36800209B1BA36023681E442660BDE8F08700002DE9F0439DB003938B8906461C060D4690460CD535
:406200000B6953B94021FFF741FF2860286110B90C233360CCE040236B610023099320238DF8293030238DF82A3043461C4613F8012B1AB9B4EB08090FD002E0252AF5D143
:40624000F8E73046294642464B46FFF775FF013000F0A980099B4B4409932378002B00F0A28000234FF0FF3204930793059206938DF853301A9304F101084446DFF8489105
:40628000217848460522FFF7C3FB08F10108049B30B1C9EB00000122824013430493ECE7D80644BF20228DF85320190744BF2B228DF8532022782A2A02D0079923460EE0C7
:4062C000039A0134111D12680391002ABBBF524243F0020307920792B8BF04930AE01C4622780133303A092A03D80A2000FB0121F5E7079123782E2B1AD163782A2B0AD1A9
:40630000039B02341A1D1B680392002BB8BF4FF0FF3305930CE0611C00220C4623780131303B092B03D80A2000FB0232F5E70592DFF89880217840460322FFF769FB38B129
:40634000049AC8EB00004023834013430493013421781A48062204F101088DF82810FFF757FB88B1164B33B9039B073323F007030833039313E003AB0093304604A92A464B
:40638000104BFEF7EBF807E003AB0093304604A92A460C4BFEF79EFB421C074603D0099B3B44099341E7AB895B0601D4099801E04FF0FF301DB0BDE8F08300BF96680000A9
:4063C0005D450000396100008C6800009268000038B5064C0023054608462360FBF70CF8431C02D1236803B12B6038BD2485FF1F814210B501EB020301D3421E0BE09842D5
:40640000FBD28118D21AD34204D013F8014D01F8014DF8E710BD994204D011F8014B02F8014FF8E710BDF8B5074615460E4621B91146BDE8F840FFF729BE1AB9FFF7E2FD9F
:406440002846F8BD00F015F8A8420ED238462946FFF71CFE044650B131462A46FDF7DCFF38463146FFF7CEFD01E03046F8BD2046F8BD51F8040C0028BEBF091851F8043CAF
:40648000C01804387047000000000000000000003D3D3D3D3D2044656275672044617461203D3D3D3D3D0A00416363656C583D25662C20416363656C593D25662C204163B7
:4064C00063656C5A3D25660A000000004F6D656761583D25662C204F6D656761593D25662C204F6D6567615A3D25660A00000000526F6C6C3D25662C2050697463683D2575
:40650000662C205961773D25660A000048783D25642C2048793D25642C20487A3D25640A0000000054656D703D25660A0A000000496E69742020202020000000537461722F
:40654000742020202000000052656164792020202000000053746F702020202000000000436F6E74726F6C200000000025640000005100402000305100401000505100409F
:406580001000C0510040100000000140000A800A01408005001401408006001B0140000100400140000A004C014000020050014020000000000A0140FC0500488000801A1E
:4065C00001407C0600488000303132333435363738394142434445460000000001000000E46500000100000028670000000000000000000001000000FC6500000100000031
:40660000E46600000300000028660000000000000000000000000000000000000000000024660000020A000000008103080002000100820240000A000100030240000A003C
:4066400002030000040309042C0343007900700072006500730073002000530065006D00690063006F006E0064007500630074006F007200100355005300420055004100D7
:40668000520054003803430044004300200043006F006D006D0075006E00690063006100740069006F006E00200049006E007400650072006600610063006500260343009C
:4066C0004400430020004400610074006100200049006E00740065007200660061006300650000000902430002010180320904000001020201030524001001042402020543
:406700002406000105240100010705810308000A09040100020A0000040705820240000007050302400000001201000202000008B40432F2010001028001000073717274D8
:40674000000000004300494E4600696E66004E414E006E616E00300030313233343536373839414243444546003031323334353637383961626364656600496E66696E6911
:406780007479004E614E00504F534958002E0000000000000000F03F000000000000244000000000000059400000000000408F40000000000088C34000000000006AF840C6
:4067C0000000000080842E4100000000D01263410000000084D797410000000065CDCD41000000205FA00242000000E876483742000000A2941A6D42000040E59C30A242D7
:406800000000901EC4BCD64200003426F56B0C430080E03779C3414300A0D8855734764300C84E676DC1AB43003D9160E458E143408CB5781DAF154450EFE2D6E41A4B44A8
:4068400092D54D06CFF08044F64AE1C7022DB544B49DD9794378EA440080E03779C34143176E05B5B5B89346F5F93FE9034F384D321D30F94877825A3CBF737FDD4F1575C0
:4068800005000000190000007D000000232D302B2000686C4C0065666745464700000000F8B500BFF8BC08BC9E4670474D00000075140000F8B500BFF8BC08BC9E4670477A
:4068C00029000000D86800000881FF1FD8000000480300000000000000000000010000002885FF1F0000007D00FA0000400000000090D00300C2010000000800C2010000F1
:4069000000080000A12000000000020000000000010000000000000000000000000000000000000000000000000000000000000000000000446700000000000000000000E0
:40694000000000000000000000000000000000000000000000000000000000000000000000000000000000000000000000000000000000004481FF1F8D6700009168000047
:406980009168000091680000916800009168000091680000916800009168000091680000FFFFFFFFFFFFFFFFFFFFFFFFFFFF0000000000000000000000000000000000001D
:4069C0000000000000000000000000000000000000000000000000000000000000000000000000000000000000000000000000000000000000000000000000000000000097
:406A00000000000000000000000000000000000000000000000000000000000000000000000000000000000000000000000000000000000000000000000000000000000056
:406A40000000000000000000000000000000000000000000000000000000000000000000000000000000000000000000000000000000000000000000000000000000000016
:406A800000000000000000000000000000000000000000000000000000000000000000000000000000000000000000000000000000000000000000000000000000000000D6
:020000040003F7
:0200000480007A
:400000000145004003520040036400400365004004050140380601401A0701401B08014025090140160A01403D0B01403714014012150140321601401617014053180140D7
:40004000311901401E1A0140431B01400E400140084101400B4201400A430140044401400245014003460140064701400648014003490140024C0140024D01400A500140A9
:40008000025101407E02201421557C40883889388A72870D88728A0D82408F40E201E6404060410349FF4AFF4BFF4DA04F0450185A045D015F01604062C06440654066C0D6
:4000C00068C06AC06CC06EC086069201A602AA04B004B202B401C060C102C501C620C705C819C9FFCAFFCBFFCDAFCE0FCF04D018D280D804DA04DB04DC01DD11DF01E04061
:40010000E2C0E440E540E6C0E8C0EAC0ECC0EEC0000409021028180419141A401B1041204610482049104F2050085120521071028E049640A740C004C208C406D044D22437
:40014000E248E6400E011E0130013E015418560458045B045D205F018501860189018D018E02A202A601B301B401B602BE50D418D604D804D904DB04DF010080032007011B
:400180000F021306180419401F01210439945A025E016004614063806408660167028F4091949202930495089B02A040A320B102B204B301C085C280C40CCE0ED681D8BD77
:4001C000E208E6408302880A8A11940196069C149E29A41FA702A81FAB01B020B103B207B418BF01D608D804D904DB04DD90DF010008024003090510081009080A400B023F
:400200000E100F0110A81201172819241A441B411C081D101E101F192002220523062440281029042A092B492F183080311A38283A403F014040410C42084841492053201E
:400240005A085D806640670169946B2870BC9980A980C04FC2AFC46FCA6FCC0FCE8ED007D20CD612D810E201EA044030410249FF4AFF4BFF4DA04F0450185A045D015F0168
:40028000604062C06440654066C068C06AC06CC06EC0920296069E04AE01B004B201B402C030C102C510C625C80EC9FFCAFFCBFFCDAFCE0FCF04D018D280D804DA04DB0420
:4002C000DC01DD11DF01E040E2C0E440E540E6C0E8C0EAC0ECC0EEC00D080F8117801C101D0A1E084010412045284F015520574077808502A604C2B0C480D066401449FF17
:400300004AFF4BFF4F0150185A045D015F016040624064406540668068806A806C806E809201AE01B601BE40C014C5ECC720C823C9FFCAFFCBFFCD83CE03CF01D018D28065
:40034000D401D604D804DA04DB04DD11DF01E040E240E440E540E680E880EA80EC80EE800902138019404002410244024502478049055102594563807380A604A740A904A7
:40038000C208C401D099D60BD801EA06009401100209044A0508061108C0093E0F01113812C0130614C1160618C019261B181D3C1EC01F0222C0243F2701283F29182C2032
:4003C0002F0430203102320733203418350136C0371C39023F14405249FF4AFF4BFF4F01501856025712580459045A045B045C225D215F0160406240644065406680688051
:400400006A806C806E80C052C9FFCAFFCBFFCD83CE03CF01D018D280DA04DB04DD11DF01E040E240E440E540E680E880EA80EC80EE80041406400C100D0A0E0214401540EE
:4004400017141C241D0A1E051F022442262427012C082F22345036513C503E0A412045204B404F405E086D406F14734074087510760B7C087E2096019C089F01A701AA016F
:40048000C070C2F0C4F0CA70CCB0CEF0D024D218D640EA0212011A0136013E40405245EC4620480B49FF4AFF4BFF4D834E034F015018540158045A045B045D115F01604063
:4004C000624064406540668068806A806C806E80040505100608070109200B400C040D080E0215501641170419801C141D081E822408261027142C082D102E082F01344451
:4005000036113C213D413E0441204440450A471149094B404C055120572159895C406640670279017A408040900292049340941099109A019E40A018A102A520A651A72193
:40054000C0F0C2AAC4F0CA70CCF0CEF0D0E4D238D61BD810E604308033013608372038205202560262016608CCF0CE10D480D620D8C03310358094209E0B9F21A480A60AC3
:40058000CC30820183208E088F1094209D809E0B9F31A480A60AE2A084808D808E0294209D809E0A9F01A480A602E21003100820C008C20298209B1082109820AB100B840E
:4005C0000E10874096109820C20EA602A810AA08AF01EA60EE808602A602E2409820AF0480209820000701010A020C050D01100611011A021C061D0100EA013F4200000035
:400600000130000003100000FF0200004F7F90000000B30BF3010C000020400008780007044F00300C0300004C70A30F8C030F4000047C380020AA000000000423060500E0
:4006400004C0E0000AFFFFFF62A0F0410C00000000000212040404040000000100000000000040020010301000101012000000000000000000000000000000003830440CEF
:4006800000040802100C000100204600003C00007E3C0000000C00303800420C080001004E10300030300000200800023E000003013C700000008A200000000464030500C8
:4006C0000200E0C028FFFFFF62A0F0410C00000000000800040404042292000100000000000040020010301000101012000000000000000000000000000000004000000023
:4007000000000000C0000000007F7F0000000000005555005500000041000000000000000000000000000000000000000000000000000000000000000000000000000000BB
